{
  "contractName": "Forwarder",
  "abi": [
    {
      "constant": true,
      "inputs": [],
      "name": "parentAddress",
      "outputs": [
        {
          "name": "",
          "type": "address"
        }
      ],
      "payable": false,
      "stateMutability": "view",
      "type": "function"
    },
    {
      "constant": true,
      "inputs": [],
      "name": "state",
      "outputs": [
        {
          "name": "",
          "type": "bool"
        }
      ],
      "payable": false,
      "stateMutability": "view",
      "type": "function"
    },
    {
      "inputs": [],
      "payable": false,
      "stateMutability": "nonpayable",
      "type": "constructor"
    },
    {
      "payable": true,
      "stateMutability": "payable",
      "type": "fallback"
    },
    {
      "anonymous": false,
      "inputs": [
        {
          "indexed": false,
          "name": "from",
          "type": "address"
        },
        {
          "indexed": false,
          "name": "value",
          "type": "uint256"
        },
        {
          "indexed": false,
          "name": "data",
          "type": "bytes"
        }
      ],
      "name": "ForwarderDeposited",
      "type": "event"
    },
    {
      "anonymous": false,
      "inputs": [
        {
          "indexed": false,
          "name": "tokenContractAddress",
          "type": "address"
        },
        {
          "indexed": false,
          "name": "value",
          "type": "uint256"
        }
      ],
      "name": "TokensFlushed",
      "type": "event"
    },
    {
      "constant": false,
      "inputs": [
        {
          "name": "tokenContractAddress",
          "type": "address"
        }
      ],
      "name": "flushTokens",
      "outputs": [],
      "payable": false,
      "stateMutability": "nonpayable",
      "type": "function"
    },
    {
      "constant": false,
      "inputs": [],
      "name": "flush",
      "outputs": [],
      "payable": false,
      "stateMutability": "nonpayable",
      "type": "function"
    },
    {
      "constant": false,
      "inputs": [],
      "name": "enable",
      "outputs": [],
      "payable": false,
      "stateMutability": "nonpayable",
      "type": "function"
    },
    {
      "constant": false,
      "inputs": [],
      "name": "disable",
      "outputs": [],
      "payable": false,
      "stateMutability": "nonpayable",
      "type": "function"
    },
    {
      "constant": true,
      "inputs": [],
      "name": "getState",
      "outputs": [
        {
          "name": "",
          "type": "bool"
        }
      ],
      "payable": false,
      "stateMutability": "view",
      "type": "function"
    },
    {
      "constant": false,
      "inputs": [
        {
          "name": "tokenAddress",
          "type": "address"
        },
        {
          "name": "sender",
          "type": "address"
        },
        {
          "name": "amount",
          "type": "uint256"
        }
      ],
      "name": "depositERC20",
      "outputs": [],
      "payable": false,
      "stateMutability": "nonpayable",
      "type": "function"
    }
  ],
  "bytecode": "0x608060405260008060146101000a81548160ff02191690831515021790555034801561002a57600080fd5b50336000806101000a81548173ffffffffffffffffffffffffffffffffffffffff021916908373ffffffffffffffffffffffffffffffffffffffff160217905550610de28061007a6000396000f30060806040526004361061008d576000357c0100000000000000000000000000000000000000000000000000000000900463ffffffff168062821de3146102b75780631865c57d1461030e5780631cad5a401461033d5780632f2770db146103aa5780633ef13367146103c15780636b9f96ea14610404578063a3907d711461041b578063c19d93fb14610432575b60001515600060149054906101000a900460ff1615151415610117576040517f08c379a000000000000000000000000000000000000000000000000000000000815260040180806020018281038252600b8152602001807f73746174652066616c736500000000000000000000000000000000000000000081525060200191505060405180910390fd5b6000809054906101000a900473ffffffffffffffffffffffffffffffffffffffff1673ffffffffffffffffffffffffffffffffffffffff166108fc349081150290604051600060405180830381858888f1935050505015801561017e573d6000803e3d6000fd5b506000809054906101000a900473ffffffffffffffffffffffffffffffffffffffff1673ffffffffffffffffffffffffffffffffffffffff166326839f17346040518263ffffffff167c010000000000000000000000000000000000000000000000000000000002815260040180828152602001915050600060405180830381600087803b15801561020f57600080fd5b505af1158015610223573d6000803e3d6000fd5b505050507f69b31548dea9b3b707b4dff357d326e3e9348b24e7a6080a218a6edeeec48f9b3334600036604051808573ffffffffffffffffffffffffffffffffffffffff1673ffffffffffffffffffffffffffffffffffffffff16815260200184815260200180602001828103825284848281815260200192508082843782019150509550505050505060405180910390a1005b3480156102c357600080fd5b506102cc610461565b604051808273ffffffffffffffffffffffffffffffffffffffff1673ffffffffffffffffffffffffffffffffffffffff16815260200191505060405180910390f35b34801561031a57600080fd5b50610323610486565b604051808215151515815260200191505060405180910390f35b34801561034957600080fd5b506103a8600480360381019080803573ffffffffffffffffffffffffffffffffffffffff169060200190929190803573ffffffffffffffffffffffffffffffffffffffff1690602001909291908035906020019092919050505061049c565b005b3480156103b657600080fd5b506103bf6106b1565b005b3480156103cd57600080fd5b50610402600480360381019080803573ffffffffffffffffffffffffffffffffffffffff169060200190929190505050610791565b005b34801561041057600080fd5b50610419610bb6565b005b34801561042757600080fd5b50610430610cc2565b005b34801561043e57600080fd5b50610447610da3565b604051808215151515815260200191505060405180910390f35b6000809054906101000a900473ffffffffffffffffffffffffffffffffffffffff1681565b60008060149054906101000a900460ff16905090565b8273ffffffffffffffffffffffffffffffffffffffff166323b872dd836000809054906101000a900473ffffffffffffffffffffffffffffffffffffffff16846040518463ffffffff167c0100000000000000000000000000000000000000000000000000000000028152600401808473ffffffffffffffffffffffffffffffffffffffff1673ffffffffffffffffffffffffffffffffffffffff1681526020018373ffffffffffffffffffffffffffffffffffffffff1673ffffffffffffffffffffffffffffffffffffffff1681526020018281526020019350505050602060405180830381600087803b15801561059457600080fd5b505af11580156105a8573d6000803e3d6000fd5b505050506040513d60208110156105be57600080fd5b8101908080519060200190929190505050506000809054906101000a900473ffffffffffffffffffffffffffffffffffffffff1673ffffffffffffffffffffffffffffffffffffffff166397feb92684836040518363ffffffff167c0100000000000000000000000000000000000000000000000000000000028152600401808373ffffffffffffffffffffffffffffffffffffffff1673ffffffffffffffffffffffffffffffffffffffff16815260200182815260200192505050600060405180830381600087803b15801561069457600080fd5b505af11580156106a8573d6000803e3d6000fd5b50505050505050565b6000809054906101000a900473ffffffffffffffffffffffffffffffffffffffff1673ffffffffffffffffffffffffffffffffffffffff163373ffffffffffffffffffffffffffffffffffffffff16141515610775576040517f08c379a00000000000000000000000000000000000000000000000000000000081526004018080602001828103825260148152602001807f73656e646572206973206e6f7420706172656e7400000000000000000000000081525060200191505060405180910390fd5b60008060146101000a81548160ff021916908315150217905550565b60008060008060009054906101000a900473ffffffffffffffffffffffffffffffffffffffff1673ffffffffffffffffffffffffffffffffffffffff163373ffffffffffffffffffffffffffffffffffffffff1614151561085a576040517f08c379a00000000000000000000000000000000000000000000000000000000081526004018080602001828103825260148152602001807f73656e646572206973206e6f7420706172656e7400000000000000000000000081525060200191505060405180910390fd5b60011515600060149054906101000a900460ff1615151415156108e5576040517f08c379a00000000000000000000000000000000000000000000000000000000081526004018080602001828103825260098152602001807f6f6666207374617465000000000000000000000000000000000000000000000081525060200191505060405180910390fd5b8392503091508273ffffffffffffffffffffffffffffffffffffffff166370a08231836040518263ffffffff167c0100000000000000000000000000000000000000000000000000000000028152600401808273ffffffffffffffffffffffffffffffffffffffff1673ffffffffffffffffffffffffffffffffffffffff168152602001915050602060405180830381600087803b15801561098657600080fd5b505af115801561099a573d6000803e3d6000fd5b505050506040513d60208110156109b057600080fd5b8101908080519060200190929190505050905060008114156109d157610bb0565b8273ffffffffffffffffffffffffffffffffffffffff1663a9059cbb6000809054906101000a900473ffffffffffffffffffffffffffffffffffffffff16836040518363ffffffff167c0100000000000000000000000000000000000000000000000000000000028152600401808373ffffffffffffffffffffffffffffffffffffffff1673ffffffffffffffffffffffffffffffffffffffff16815260200182815260200192505050602060405180830381600087803b158015610a9557600080fd5b505af1158015610aa9573d6000803e3d6000fd5b505050506040513d6020811015610abf57600080fd5b81019080805190602001909291905050501515610b44576040517f08c379a00000000000000000000000000000000000000000000000000000000081526004018080602001828103825260108152602001807f6661696c20746f207472616e736665720000000000000000000000000000000081525060200191505060405180910390fd5b7f9401e4e79c19cbe2bd774cb70a94ba660e6718be1bac1298ab3b07f454a608218482604051808373ffffffffffffffffffffffffffffffffffffffff1673ffffffffffffffffffffffffffffffffffffffff1681526020018281526020019250505060405180910390a15b50505050565b60011515600060149054906101000a900460ff161515141515610c41576040517f08c379a00000000000000000000000000000000000000000000000000000000081526004018080602001828103825260098152602001807f6f6666207374617465000000000000000000000000000000000000000000000081525060200191505060405180910390fd5b6000809054906101000a900473ffffffffffffffffffffffffffffffffffffffff1673ffffffffffffffffffffffffffffffffffffffff166108fc3073ffffffffffffffffffffffffffffffffffffffff16319081150290604051600060405180830381858888f19350505050158015610cbf573d6000803e3d6000fd5b50565b6000809054906101000a900473ffffffffffffffffffffffffffffffffffffffff1673ffffffffffffffffffffffffffffffffffffffff163373ffffffffffffffffffffffffffffffffffffffff16141515610d86576040517f08c379a00000000000000000000000000000000000000000000000000000000081526004018080602001828103825260148152602001807f73656e646572206973206e6f7420706172656e7400000000000000000000000081525060200191505060405180910390fd5b6001600060146101000a81548160ff021916908315150217905550565b600060149054906101000a900460ff16815600a165627a7a72305820a07228ba80970f138216037ceb34dd9c2e6ccefb1743bbf2d2341e42cedfad430029",
  "source": "pragma solidity ^0.4.24;\n\nimport \"./MultiSigWalletStorage.sol\";\n\ncontract ERC20Interface {\n  // Send _value amount of tokens to address _to\n  function transfer(address _to, uint256 _value) public returns (bool success);\n  // Get the account balance of another account with address _owner\n  function balanceOf(address _owner) public view returns (uint256 balance);\n\n  function transferFrom(address sender, address recipient, uint256 amount) external returns (bool);\n}\n\ncontract Forwarder {\n  address public parentAddress;\n  bool public state = false;\n  event ForwarderDeposited(address from, uint value, bytes data);\n\n  event TokensFlushed(\n    address tokenContractAddress,\n    uint value\n  );\n\n  constructor () public {\n    parentAddress = msg.sender;\n  }\n\n  modifier onlyParent {\n    if (msg.sender != parentAddress) {\n      revert(\"sender is not parent\");\n    }\n    _;\n  }\n\n  function() public payable {\n    if(state == false) {\n        revert(\"state false\");\n    }\n\n    parentAddress.transfer(msg.value);\n    WalletSimple(parentAddress).depositEther(msg.value);\n    emit ForwarderDeposited(msg.sender, msg.value, msg.data);\n  }\n\n  function flushTokens(address tokenContractAddress) public onlyParent {\n    require(state == true, \"off state\");\n    ERC20Interface instance = ERC20Interface(tokenContractAddress);\n    address forwarderAddress = address(this);\n    uint256 forwarderBalance = instance.balanceOf(forwarderAddress);\n    if (forwarderBalance == 0) {\n      return;\n    }\n    if (!instance.transfer(parentAddress, forwarderBalance)) {\n      revert(\"fail to transfer\");\n    }\n    emit TokensFlushed(tokenContractAddress, forwarderBalance);\n  }\n\n  function flush() public {\n    require(state == true, \"off state\");\n    parentAddress.transfer(address(this).balance);\n  }\n\n  function enable() public onlyParent {\n      state = true;\n  }\n\n  function disable() public onlyParent {\n      state = false;\n  }\n\n  function getState() public view returns(bool) {\n      return state;\n  }\n\n  function depositERC20(address tokenAddress, address sender, uint256 amount) public {\n    ERC20Interface(tokenAddress).transferFrom(sender, parentAddress, amount);\n    WalletSimple(parentAddress).depositERC20(tokenAddress, amount);\n  }\n}\n\ncontract WalletSimple {\n  // Events\n  event Deposited(address from, uint value, bytes data);\n  event SafeModeActivated(address msgSender);\n  event Transacted(\n    address msgSender, // Address of the sender of the message initiating the transaction\n    address otherSigner, // Address of the signer (second signature) used to initiate the transaction\n    bytes32 operation, // Operation hash (sha3 of toAddress, value, data, expireTime, sequenceId)\n    address toAddress, // The address the transaction was sent to\n    uint value, // Amount of Wei sent to the address\n    bytes data // Data sent when invoking the transaction\n  );\n  event TokenTransacted(\n    address msgSender, // Address of the sender of the message initiating the transaction\n    address otherSigner, // Address of the signer (second signature) used to initiate the transaction\n    bytes32 operation, // Operation hash (sha3 of toAddress, value, tokenContractAddress, expireTime, sequenceId)\n    address toAddress, // The address the transaction was sent to\n    uint value, // Amount of token sent\n    address tokenContractAddress // The contract address of the token\n  );\n\n  address[] public signers;\n  bool public safeMode = false;\n\n  uint constant SEQUENCE_ID_WINDOW_SIZE = 10;\n  uint[10] recentSequenceIds;\n\n  address[] public unassignedForwarder;\n  address private storageAddress;\n\n  modifier onlysigner {\n    if (!isSigner(msg.sender)) {\n      revert(\"not signer\");\n    }\n    _;\n  }\n\n  constructor (address[] allowedSigners) public {\n    if (allowedSigners.length != 3) {\n      // Invalid number of signers\n      revert(\"wrong number of signers\");\n    }\n    signers = allowedSigners;\n  }\n\n  function showSender() public returns (address) {\n      return msg.sender;\n  }\n\n  function() public payable {\n    if (msg.value > 0) {\n      emit Deposited(msg.sender, msg.value, msg.data);\n    }\n  }\n\n  function setStorageAddress(address target) public onlysigner {\n      storageAddress = target;\n  }\n\n  function depositEther(uint256 amount) public {\n    if(MultiSigWalletStorage(storageAddress).isForwarder(msg.sender)) {\n      MultiSigWalletStorage(storageAddress).depositEther(msg.sender, amount);\n    }\n  }\n\n  function depositERC20(address tokenAddress, uint256 amount) public {\n    if(MultiSigWalletStorage(storageAddress).isForwarder(msg.sender)) {\n      MultiSigWalletStorage(storageAddress).depositERC20(tokenAddress, msg.sender, amount);\n    }\n  }\n\n  function createForwarder() public onlysigner returns (address) {\n    address forwarder = new Forwarder();\n    unassignedForwarder.push(forwarder);\n    return forwarder;\n  }\n\n  function assignForwarder(address client) public onlysigner returns (address) {\n    require(getNumOfUnassignedForwarder() != 0, \"not enough\");\n    uint256 len = unassignedForwarder.length;\n    address targetForwarder = unassignedForwarder[len-1];\n    Forwarder forwarder = Forwarder(targetForwarder);\n    forwarder.enable();\n\n    MultiSigWalletStorage instance = MultiSigWalletStorage(storageAddress);\n    instance.addForwarder(targetForwarder, client);\n\n    delete unassignedForwarder[len-1];\n    unassignedForwarder.length--;\n\n    return targetForwarder;\n  }\n\n  function showUnassignedForwarder() public view returns (address[]) {\n      return unassignedForwarder;\n  }\n\n  function getNumOfUnassignedForwarder() public view returns (uint256) {\n      return unassignedForwarder.length;\n  }\n\n  function sendMultiSig(address toAddress, uint value, bytes data, uint expireTime, uint sequenceId, bytes signature) public onlysigner {\n    // Verify the other signer\n    bytes32 operationHash = keccak256(\"ETHER\", toAddress, value, data, expireTime, sequenceId);\n    \n    address otherSigner = verifyMultiSig(toAddress, operationHash, signature, expireTime, sequenceId);\n\n    toAddress.transfer(value);\n\n    emit Transacted(msg.sender, otherSigner, operationHash, toAddress, value, data);\n  }\n\n  function sendMultiSigToken(address toAddress, uint value, address tokenContractAddress, uint expireTime, uint sequenceId, bytes signature) public onlysigner {\n    // Verify the other signer\n    bytes32 operationHash = keccak256(\"ERC20\", toAddress, value, tokenContractAddress, expireTime, sequenceId);\n    \n    address otherSigner = verifyMultiSig(toAddress, operationHash, signature, expireTime, sequenceId);\n    \n    ERC20Interface instance = ERC20Interface(tokenContractAddress);\n\n    instance.transfer(toAddress, value);\n\n    emit TokenTransacted(msg.sender, otherSigner, operationHash, toAddress, value, tokenContractAddress);\n  }\n\n  function flushForwarderTokens(address forwarderAddress, address tokenContractAddress) public onlysigner {    \n    Forwarder forwarder = Forwarder(forwarderAddress);\n    forwarder.flushTokens(tokenContractAddress);\n  }\n  \n  function verifyMultiSig(address toAddress, bytes32 operationHash, bytes signature, uint expireTime, uint sequenceId) private returns (address) {\n\n    address otherSigner = recoverAddressFromSignature(operationHash, signature);\n\n    // Verify if we are in safe mode. In safe mode, the wallet can only send to signers\n    if (safeMode && !isSigner(toAddress)) {\n      // We are in safe mode and the toAddress is not a signer. Disallow!\n      revert(\"not signer\");\n    }\n    // Verify that the transaction has not expired\n    if (expireTime < block.timestamp) {\n      // Transaction expired\n      revert(\"over time\");\n    }\n\n    // Try to insert the sequence ID. Will throw if the sequence id was invalid\n    tryInsertSequenceId(sequenceId);\n\n    if (!isSigner(otherSigner)) {\n      // Other signer not on this wallet or operation does not match arguments\n      revert(\"not signer\");\n    }\n    if (otherSigner == msg.sender) {\n      // Cannot approve own transaction\n      revert(\"same signer\");\n    }\n\n    return otherSigner;\n  }\n\n  function activateSafeMode() public onlysigner {\n    safeMode = true;\n    emit SafeModeActivated(msg.sender);\n  }\n\n  function isSigner(address signer) public view returns (bool) {\n    // Iterate through all signers on the wallet and\n    for (uint i = 0; i < signers.length; i++) {\n      if (signers[i] == signer) {\n        return true;\n      }\n    }\n    return false;\n  }\n\n  function recoverAddressFromSignature(bytes32 operationHash, bytes signature) private pure returns (address) {\n    if (signature.length != 65) {\n      revert(\"wrong signature\");\n    }\n    // We need to unpack the signature, which is given as an array of 65 bytes (from eth.sign)\n    bytes32 r;\n    bytes32 s;\n    uint8 v;\n    assembly {\n      r := mload(add(signature, 32))\n      s := mload(add(signature, 64))\n      v := and(mload(add(signature, 65)), 255)\n    }\n    if (v < 27) {\n      v += 27; // Ethereum versions are 27 or 28 as opposed to 0 or 1 which is submitted by some signing libs\n    }\n    return ecrecover(operationHash, v, r, s);\n  }\n\n  function tryInsertSequenceId(uint sequenceId) onlysigner private {\n    // Keep a pointer to the lowest value element in the window\n    uint lowestValueIndex = 0;\n    for (uint i = 0; i < SEQUENCE_ID_WINDOW_SIZE; i++) {\n      if (recentSequenceIds[i] == sequenceId) {\n        // This sequence ID has been used before. Disallow!\n        revert(\"wrong sequenceId\");\n      }\n      if (recentSequenceIds[i] < recentSequenceIds[lowestValueIndex]) {\n        lowestValueIndex = i;\n      }\n    }\n    if (sequenceId < recentSequenceIds[lowestValueIndex]) {\n      // The sequence ID being used is lower than the lowest value in the window\n      // so we cannot accept it as it may have been used before\n      revert();\n    }\n    if (sequenceId > (recentSequenceIds[lowestValueIndex] + 10000)) {\n      // Block sequence IDs which are much higher than the lowest value\n      // This prevents people blocking the contract by using very large sequence IDs quickly\n      revert();\n    }\n    recentSequenceIds[lowestValueIndex] = sequenceId;\n  }\n\n  function getNextSequenceId() public view returns (uint) {\n    uint highestSequenceId = 0;\n    for (uint i = 0; i < SEQUENCE_ID_WINDOW_SIZE; i++) {\n      if (recentSequenceIds[i] > highestSequenceId) {\n        highestSequenceId = recentSequenceIds[i];\n      }\n    }\n    return highestSequenceId + 1;\n  }\n\n  function isSetted() public view returns (bool) {\n    if(MultiSigWalletStorage(storageAddress) == address(0)) {\n        return false;\n    } else {\n        return true;\n    }\n  }\n}",
  "sourcePath": "/Users/jang-yonghyeon/workspace/blockchain/ethereum/MultiSigWallet/contracts/MultiSigWallet.sol",
  "compiler": {
    "name": "solc",
    "version": "0.4.25+commit.59dbf8f1.Emscripten.clang"
  },
  "schemaVersion": "2.0.2",
  "updatedAt": "2019-08-07T01:26:41.921Z"
}