{
  "contractName": "Logic",
  "abi": [
    {
      "constant": true,
      "inputs": [],
      "name": "_proxyStorageAddress",
      "outputs": [
        {
          "name": "",
          "type": "address"
        }
      ],
      "payable": false,
      "stateMutability": "view",
      "type": "function"
    },
    {
      "constant": false,
      "inputs": [
        {
          "name": "recipient",
          "type": "address"
        },
        {
          "name": "amount",
          "type": "uint256"
        },
        {
          "name": "gods",
          "type": "address[]"
        },
        {
          "name": "feeAmount",
          "type": "uint256[]"
        }
      ],
      "name": "etherSend",
      "outputs": [],
      "payable": true,
      "stateMutability": "payable",
      "type": "function"
    },
    {
      "constant": false,
      "inputs": [
        {
          "name": "tokenAddress",
          "type": "address"
        },
        {
          "name": "recipient",
          "type": "address"
        },
        {
          "name": "tokenAmount",
          "type": "uint256"
        },
        {
          "name": "gods",
          "type": "address[]"
        },
        {
          "name": "feeAmount",
          "type": "uint256[]"
        }
      ],
      "name": "ERC20Send",
      "outputs": [],
      "payable": true,
      "stateMutability": "payable",
      "type": "function"
    }
  ],
  "bytecode": "0x608060405234801561001057600080fd5b5061097d806100206000396000f300608060405260043610610057576000357c0100000000000000000000000000000000000000000000000000000000900463ffffffff16806311eed4321461005c5780639ed99fc914610122578063db8325b714610179575b600080fd5b610120600480360381019080803573ffffffffffffffffffffffffffffffffffffffff16906020019092919080359060200190929190803590602001908201803590602001908080602002602001604051908101604052809392919081815260200183836020028082843782019150505050505091929192908035906020019082018035906020019080806020026020016040519081016040528093929190818152602001838360200280828437820191505050505050919291929050505061025f565b005b34801561012e57600080fd5b506101376104d4565b604051808273ffffffffffffffffffffffffffffffffffffffff1673ffffffffffffffffffffffffffffffffffffffff16815260200191505060405180910390f35b61025d600480360381019080803573ffffffffffffffffffffffffffffffffffffffff169060200190929190803573ffffffffffffffffffffffffffffffffffffffff1690602001909291908035906020019092919080359060200190820180359060200190808060200260200160405190810160405280939291908181526020018383602002808284378201915050505050509192919290803590602001908201803590602001908080602002602001604051908101604052809392919081815260200183836020028082843782019150505050505091929192905050506104f9565b005b60008073ffffffffffffffffffffffffffffffffffffffff168573ffffffffffffffffffffffffffffffffffffffff1614151515610305576040517f08c379a00000000000000000000000000000000000000000000000000000000081526004018080602001828103825260178152602001807f77726f6e6720726563697069656e74206164647265737300000000000000000081525060200191505060405180910390fd5b8151835114151561037e576040517f08c379a00000000000000000000000000000000000000000000000000000000081526004018080602001828103825260108152602001807f77726f6e6720676f64732720696e666f0000000000000000000000000000000081525060200191505060405180910390fd5b8334101515156103f6576040517f08c379a000000000000000000000000000000000000000000000000000000000815260040180806020018281038252600c8152602001807f77726f6e6720616d6f756e74000000000000000000000000000000000000000081525060200191505060405180910390fd5b8473ffffffffffffffffffffffffffffffffffffffff166108fc859081150290604051600060405180830381858888f1935050505015801561043c573d6000803e3d6000fd5b50600090505b82518110156104cd57828181518110151561045957fe5b9060200190602002015173ffffffffffffffffffffffffffffffffffffffff166108fc838381518110151561048a57fe5b906020019060200201519081150290604051600060405180830381858888f193505050501580156104bf573d6000803e3d6000fd5b508080600101915050610442565b5050505050565b6000809054906101000a900473ffffffffffffffffffffffffffffffffffffffff1681565b600080600073ffffffffffffffffffffffffffffffffffffffff168773ffffffffffffffffffffffffffffffffffffffff16141515156105a1576040517f08c379a00000000000000000000000000000000000000000000000000000000081526004018080602001828103825260138152602001807f77726f6e6720746f6b656e20616464726573730000000000000000000000000081525060200191505060405180910390fd5b600073ffffffffffffffffffffffffffffffffffffffff168673ffffffffffffffffffffffffffffffffffffffff1614151515610646576040517f08c379a00000000000000000000000000000000000000000000000000000000081526004018080602001828103825260178152602001807f77726f6e6720726563697069656e74206164647265737300000000000000000081525060200191505060405180910390fd5b825184511415156106bf576040517f08c379a00000000000000000000000000000000000000000000000000000000081526004018080602001828103825260108152602001807f77726f6e6720676f64732720696e666f0000000000000000000000000000000081525060200191505060405180910390fd5b8673ffffffffffffffffffffffffffffffffffffffff166370a08231336040518263ffffffff167c0100000000000000000000000000000000000000000000000000000000028152600401808273ffffffffffffffffffffffffffffffffffffffff1673ffffffffffffffffffffffffffffffffffffffff168152602001915050602060405180830381600087803b15801561075a57600080fd5b505af115801561076e573d6000803e3d6000fd5b505050506040513d602081101561078457600080fd5b81019080805190602001909291905050509150818511156107a457610948565b8673ffffffffffffffffffffffffffffffffffffffff166323b872dd3388886040518463ffffffff167c0100000000000000000000000000000000000000000000000000000000028152600401808473ffffffffffffffffffffffffffffffffffffffff1673ffffffffffffffffffffffffffffffffffffffff1681526020018373ffffffffffffffffffffffffffffffffffffffff1673ffffffffffffffffffffffffffffffffffffffff1681526020018281526020019350505050602060405180830381600087803b15801561087b57600080fd5b505af115801561088f573d6000803e3d6000fd5b505050506040513d60208110156108a557600080fd5b810190808051906020019092919050505050600090505b83518110156109475783818151811015156108d357fe5b9060200190602002015173ffffffffffffffffffffffffffffffffffffffff166108fc848381518110151561090457fe5b906020019060200201519081150290604051600060405180830381858888f19350505050158015610939573d6000803e3d6000fd5b5080806001019150506108bc565b5b505050505050505600a165627a7a72305820fb84199a85d2630ff8f04e70785180ca3becaee58ef94c845fb81e78ecfe0c6f0029",
  "source": "pragma solidity ^0.4.24;\n\nimport \"./HotDogToken.sol\";\nimport \"./ProxyStorage.sol\";\n\ncontract Logic {\n    address public _proxyStorageAddress;\n\n    //수수료 처리 방법에 대한 고민 필요\n    function etherSend(address recipient, uint256 amount, address[] gods, uint256[] feeAmount) public payable {\n        require(recipient != address(0), \"wrong recipient address\");\n        require(gods.length == feeAmount.length, \"wrong gods' info\");\n        require(msg.value >= amount, \"wrong amount\");\n\n        recipient.transfer(amount);\n        for(uint256 i=0; i<gods.length; i++) {\n            gods[i].transfer(feeAmount[i]);\n        }\n    }\n\n    function ERC20Send(address tokenAddress, address recipient, uint256 tokenAmount, address[] gods, uint256[] feeAmount) public payable {\n        require(tokenAddress != address(0), \"wrong token address\");\n        require(recipient != address(0), \"wrong recipient address\");\n        require(gods.length == feeAmount.length, \"wrong gods' info\");\n        uint256 balance = ERC20(tokenAddress).balanceOf(msg.sender);\n        if(tokenAmount > balance) {\n            return;\n        }\n        ERC20(tokenAddress).transferFrom(msg.sender, recipient, tokenAmount);\n        for(uint256 i=0; i<gods.length; i++) {\n            gods[i].transfer(feeAmount[i]);\n        }\n    }\n}",
  "sourcePath": "/Users/jang-yonghyeon/workspace/blockchain/ethereum/MultiSigWallet/contracts/Logic.sol",
  "compiler": {
    "name": "solc",
    "version": "0.4.25+commit.59dbf8f1.Emscripten.clang"
  },
  "schemaVersion": "2.0.2",
  "updatedAt": "2019-08-06T07:25:15.440Z"
}