{
  "contractName": "Logic",
  "abi": [
    {
      "constant": true,
      "inputs": [],
      "name": "_proxyStorageAddress",
      "outputs": [
        {
          "name": "",
          "type": "address"
        }
      ],
      "payable": false,
      "stateMutability": "view",
      "type": "function"
    },
    {
      "constant": false,
      "inputs": [
        {
          "name": "recipient",
          "type": "address"
        },
        {
          "name": "amount",
          "type": "uint256"
        }
      ],
      "name": "etherSendFree",
      "outputs": [],
      "payable": true,
      "stateMutability": "payable",
      "type": "function"
    },
    {
      "constant": false,
      "inputs": [
        {
          "name": "recipient",
          "type": "address"
        },
        {
          "name": "amount",
          "type": "uint256"
        },
        {
          "name": "gods",
          "type": "address[]"
        },
        {
          "name": "feeAmount",
          "type": "uint256[]"
        }
      ],
      "name": "etherSendWithFee",
      "outputs": [],
      "payable": true,
      "stateMutability": "payable",
      "type": "function"
    },
    {
      "constant": false,
      "inputs": [
        {
          "name": "tokenAddress",
          "type": "address"
        },
        {
          "name": "recipient",
          "type": "address"
        },
        {
          "name": "tokenAmount",
          "type": "uint256"
        },
        {
          "name": "gods",
          "type": "address[]"
        },
        {
          "name": "feeAmount",
          "type": "uint256[]"
        }
      ],
      "name": "ERC20Send",
      "outputs": [],
      "payable": true,
      "stateMutability": "payable",
      "type": "function"
    }
  ],
  "bytecode": "0x608060405234801561001057600080fd5b50610b30806100206000396000f300608060405260043610610062576000357c0100000000000000000000000000000000000000000000000000000000900463ffffffff1680639a7271d5146100675780639ed99fc91461012d578063b9a2652c14610184578063db8325b7146101c4575b600080fd5b61012b600480360381019080803573ffffffffffffffffffffffffffffffffffffffff1690602001909291908035906020019092919080359060200190820180359060200190808060200260200160405190810160405280939291908181526020018383602002808284378201915050505050509192919290803590602001908201803590602001908080602002602001604051908101604052809392919081815260200183836020028082843782019150505050505091929192905050506102aa565b005b34801561013957600080fd5b5061014261051f565b604051808273ffffffffffffffffffffffffffffffffffffffff1673ffffffffffffffffffffffffffffffffffffffff16815260200191505060405180910390f35b6101c2600480360381019080803573ffffffffffffffffffffffffffffffffffffffff16906020019092919080359060200190929190505050610544565b005b6102a8600480360381019080803573ffffffffffffffffffffffffffffffffffffffff169060200190929190803573ffffffffffffffffffffffffffffffffffffffff1690602001909291908035906020019092919080359060200190820180359060200190808060200260200160405190810160405280939291908181526020018383602002808284378201915050505050509192919290803590602001908201803590602001908080602002602001604051908101604052809392919081815260200183836020028082843782019150505050505091929192905050506106ac565b005b60008073ffffffffffffffffffffffffffffffffffffffff168573ffffffffffffffffffffffffffffffffffffffff1614151515610350576040517f08c379a00000000000000000000000000000000000000000000000000000000081526004018080602001828103825260178152602001807f77726f6e6720726563697069656e74206164647265737300000000000000000081525060200191505060405180910390fd5b815183511415156103c9576040517f08c379a00000000000000000000000000000000000000000000000000000000081526004018080602001828103825260108152602001807f77726f6e6720676f64732720696e666f0000000000000000000000000000000081525060200191505060405180910390fd5b833410151515610441576040517f08c379a000000000000000000000000000000000000000000000000000000000815260040180806020018281038252600c8152602001807f77726f6e6720616d6f756e74000000000000000000000000000000000000000081525060200191505060405180910390fd5b8473ffffffffffffffffffffffffffffffffffffffff166108fc859081150290604051600060405180830381858888f19350505050158015610487573d6000803e3d6000fd5b50600090505b82518110156105185782818151811015156104a457fe5b9060200190602002015173ffffffffffffffffffffffffffffffffffffffff166108fc83838151811015156104d557fe5b906020019060200201519081150290604051600060405180830381858888f1935050505015801561050a573d6000803e3d6000fd5b50808060010191505061048d565b5050505050565b6000809054906101000a900473ffffffffffffffffffffffffffffffffffffffff1681565b600073ffffffffffffffffffffffffffffffffffffffff168273ffffffffffffffffffffffffffffffffffffffff16141515156105e9576040517f08c379a00000000000000000000000000000000000000000000000000000000081526004018080602001828103825260178152602001807f77726f6e6720726563697069656e74206164647265737300000000000000000081525060200191505060405180910390fd5b803410151515610661576040517f08c379a000000000000000000000000000000000000000000000000000000000815260040180806020018281038252600c8152602001807f77726f6e6720616d6f756e74000000000000000000000000000000000000000081525060200191505060405180910390fd5b8173ffffffffffffffffffffffffffffffffffffffff166108fc829081150290604051600060405180830381858888f193505050501580156106a7573d6000803e3d6000fd5b505050565b600080600073ffffffffffffffffffffffffffffffffffffffff168773ffffffffffffffffffffffffffffffffffffffff1614151515610754576040517f08c379a00000000000000000000000000000000000000000000000000000000081526004018080602001828103825260138152602001807f77726f6e6720746f6b656e20616464726573730000000000000000000000000081525060200191505060405180910390fd5b600073ffffffffffffffffffffffffffffffffffffffff168673ffffffffffffffffffffffffffffffffffffffff16141515156107f9576040517f08c379a00000000000000000000000000000000000000000000000000000000081526004018080602001828103825260178152602001807f77726f6e6720726563697069656e74206164647265737300000000000000000081525060200191505060405180910390fd5b82518451141515610872576040517f08c379a00000000000000000000000000000000000000000000000000000000081526004018080602001828103825260108152602001807f77726f6e6720676f64732720696e666f0000000000000000000000000000000081525060200191505060405180910390fd5b8673ffffffffffffffffffffffffffffffffffffffff166370a08231336040518263ffffffff167c0100000000000000000000000000000000000000000000000000000000028152600401808273ffffffffffffffffffffffffffffffffffffffff1673ffffffffffffffffffffffffffffffffffffffff168152602001915050602060405180830381600087803b15801561090d57600080fd5b505af1158015610921573d6000803e3d6000fd5b505050506040513d602081101561093757600080fd5b810190808051906020019092919050505091508185111561095757610afb565b8673ffffffffffffffffffffffffffffffffffffffff166323b872dd3388886040518463ffffffff167c0100000000000000000000000000000000000000000000000000000000028152600401808473ffffffffffffffffffffffffffffffffffffffff1673ffffffffffffffffffffffffffffffffffffffff1681526020018373ffffffffffffffffffffffffffffffffffffffff1673ffffffffffffffffffffffffffffffffffffffff1681526020018281526020019350505050602060405180830381600087803b158015610a2e57600080fd5b505af1158015610a42573d6000803e3d6000fd5b505050506040513d6020811015610a5857600080fd5b810190808051906020019092919050505050600090505b8351811015610afa578381815181101515610a8657fe5b9060200190602002015173ffffffffffffffffffffffffffffffffffffffff166108fc8483815181101515610ab757fe5b906020019060200201519081150290604051600060405180830381858888f19350505050158015610aec573d6000803e3d6000fd5b508080600101915050610a6f565b5b505050505050505600a165627a7a723058208df82f695afb6525be65cf2cc5f09e25cd435452812a5746b7bd812bda1a6fa60029",
  "source": "pragma solidity ^0.4.24;\n\nimport \"./HotDogToken.sol\";\nimport \"./ProxyStorage.sol\";\n\ncontract Logic {\n    address public _proxyStorageAddress;\n\n    function etherSendFree(address recipient, uint256 amount) public payable {\n        require(recipient != address(0), \"wrong recipient address\");\n        require(msg.value >= amount, \"wrong amount\");\n\n        recipient.transfer(amount);\n    }\n\n    //수수료 처리 방법에 대한 고민 필요\n    function etherSendWithFee(address recipient, uint256 amount, address[] gods, uint256[] feeAmount) public payable {\n        require(recipient != address(0), \"wrong recipient address\");\n        require(gods.length == feeAmount.length, \"wrong gods' info\");\n        require(msg.value >= amount, \"wrong amount\");\n\n        recipient.transfer(amount);\n        for(uint256 i=0; i<gods.length; i++) {\n            gods[i].transfer(feeAmount[i]);\n        }\n    }\n\n    function ERC20Send(address tokenAddress, address recipient, uint256 tokenAmount, address[] gods, uint256[] feeAmount) public payable {\n        require(tokenAddress != address(0), \"wrong token address\");\n        require(recipient != address(0), \"wrong recipient address\");\n        require(gods.length == feeAmount.length, \"wrong gods' info\");\n        uint256 balance = ERC20(tokenAddress).balanceOf(msg.sender);\n        if(tokenAmount > balance) {\n            return;\n        }\n        ERC20(tokenAddress).transferFrom(msg.sender, recipient, tokenAmount);\n        for(uint256 i=0; i<gods.length; i++) {\n            gods[i].transfer(feeAmount[i]);\n        }\n    }\n}",
  "sourcePath": "/Users/jang-yonghyeon/workspace/blockchain/ethereum/MultiSigWallet/contracts/Logic.sol",
  "compiler": {
    "name": "solc",
    "version": "0.4.25+commit.59dbf8f1.Emscripten.clang"
  },
  "schemaVersion": "2.0.2",
  "updatedAt": "2019-08-07T01:26:42.410Z"
}