{
  "contractName": "Logic",
  "abi": [
    {
      "constant": true,
      "inputs": [],
      "name": "_proxyStorageAddress",
      "outputs": [
        {
          "name": "",
          "type": "address"
        }
      ],
      "payable": false,
      "stateMutability": "view",
      "type": "function"
    },
    {
      "constant": false,
      "inputs": [
        {
          "name": "recipient",
          "type": "address"
        },
        {
          "name": "amount",
          "type": "uint256"
        }
      ],
      "name": "etherSendFree",
      "outputs": [],
      "payable": true,
      "stateMutability": "payable",
      "type": "function"
    },
    {
      "constant": false,
      "inputs": [
        {
          "name": "recipient",
          "type": "address"
        },
        {
          "name": "amount",
          "type": "uint256"
        },
        {
          "name": "masters",
          "type": "address[]"
        },
        {
          "name": "feeAmount",
          "type": "uint256[]"
        }
      ],
      "name": "etherSendWithFee",
      "outputs": [],
      "payable": true,
      "stateMutability": "payable",
      "type": "function"
    },
    {
      "constant": false,
      "inputs": [
        {
          "name": "tokenAddress",
          "type": "address"
        },
        {
          "name": "recipient",
          "type": "address"
        },
        {
          "name": "tokenAmount",
          "type": "uint256"
        },
        {
          "name": "masters",
          "type": "address[]"
        },
        {
          "name": "feeAmount",
          "type": "uint256[]"
        }
      ],
      "name": "ERC20Send",
      "outputs": [],
      "payable": true,
      "stateMutability": "payable",
      "type": "function"
    }
  ],
  "bytecode": "0x608060405234801561001057600080fd5b50610c35806100206000396000f300608060405260043610610062576000357c0100000000000000000000000000000000000000000000000000000000900463ffffffff1680639a7271d5146100675780639ed99fc91461012d578063b9a2652c14610184578063db8325b7146101c4575b600080fd5b61012b600480360381019080803573ffffffffffffffffffffffffffffffffffffffff1690602001909291908035906020019092919080359060200190820180359060200190808060200260200160405190810160405280939291908181526020018383602002808284378201915050505050509192919290803590602001908201803590602001908080602002602001604051908101604052809392919081815260200183836020028082843782019150505050505091929192905050506102aa565b005b34801561013957600080fd5b5061014261056a565b604051808273ffffffffffffffffffffffffffffffffffffffff1673ffffffffffffffffffffffffffffffffffffffff16815260200191505060405180910390f35b6101c2600480360381019080803573ffffffffffffffffffffffffffffffffffffffff1690602001909291908035906020019092919050505061058f565b005b6102a8600480360381019080803573ffffffffffffffffffffffffffffffffffffffff169060200190929190803573ffffffffffffffffffffffffffffffffffffffff169060200190929190803590602001909291908035906020019082018035906020019080806020026020016040519081016040528093929190818152602001838360200280828437820191505050505050919291929080359060200190820180359060200190808060200260200160405190810160405280939291908181526020018383602002808284378201915050505050509192919290505050610740565b005b600080600073ffffffffffffffffffffffffffffffffffffffff168673ffffffffffffffffffffffffffffffffffffffff1614151515610352576040517f08c379a00000000000000000000000000000000000000000000000000000000081526004018080602001828103825260178152602001807f77726f6e6720726563697069656e74206164647265737300000000000000000081525060200191505060405180910390fd5b825184511415156103cb576040517f08c379a00000000000000000000000000000000000000000000000000000000081526004018080602001828103825260138152602001807f77726f6e67206d6173746572732720696e666f0000000000000000000000000081525060200191505060405180910390fd5b600090505b82518160ff16101561040857828160ff168151811015156103ed57fe5b906020019060200201518201915080806001019150506103d0565b8185013410151515610482576040517f08c379a000000000000000000000000000000000000000000000000000000000815260040180806020018281038252600c8152602001807f77726f6e6720616d6f756e74000000000000000000000000000000000000000081525060200191505060405180910390fd5b8573ffffffffffffffffffffffffffffffffffffffff166108fc869081150290604051600060405180830381858888f193505050501580156104c8573d6000803e3d6000fd5b50600090505b83518160ff16101561056257838160ff168151811015156104eb57fe5b9060200190602002015173ffffffffffffffffffffffffffffffffffffffff166108fc848360ff1681518110151561051f57fe5b906020019060200201519081150290604051600060405180830381858888f19350505050158015610554573d6000803e3d6000fd5b5080806001019150506104ce565b505050505050565b6000809054906101000a900473ffffffffffffffffffffffffffffffffffffffff1681565b600073ffffffffffffffffffffffffffffffffffffffff168273ffffffffffffffffffffffffffffffffffffffff1614151515610634576040517f08c379a00000000000000000000000000000000000000000000000000000000081526004018080602001828103825260178152602001807f77726f6e6720726563697069656e74206164647265737300000000000000000081525060200191505060405180910390fd5b8034101515156106ac576040517f08c379a000000000000000000000000000000000000000000000000000000000815260040180806020018281038252600c8152602001807f77726f6e6720616d6f756e74000000000000000000000000000000000000000081525060200191505060405180910390fd5b8173ffffffffffffffffffffffffffffffffffffffff166108fc829081150290604051600060405180830381858888f193505050501580156106f2573d6000803e3d6000fd5b503373ffffffffffffffffffffffffffffffffffffffff166108fc8234039081150290604051600060405180830381858888f1935050505015801561073b573d6000803e3d6000fd5b505050565b600080600073ffffffffffffffffffffffffffffffffffffffff168773ffffffffffffffffffffffffffffffffffffffff16141515156107e8576040517f08c379a00000000000000000000000000000000000000000000000000000000081526004018080602001828103825260138152602001807f77726f6e6720746f6b656e20616464726573730000000000000000000000000081525060200191505060405180910390fd5b600073ffffffffffffffffffffffffffffffffffffffff168673ffffffffffffffffffffffffffffffffffffffff161415151561088d576040517f08c379a00000000000000000000000000000000000000000000000000000000081526004018080602001828103825260178152602001807f77726f6e6720726563697069656e74206164647265737300000000000000000081525060200191505060405180910390fd5b82518451141515610906576040517f08c379a00000000000000000000000000000000000000000000000000000000081526004018080602001828103825260138152602001807f77726f6e67206d6173746572732720696e666f0000000000000000000000000081525060200191505060405180910390fd5b8673ffffffffffffffffffffffffffffffffffffffff166370a08231336040518263ffffffff167c0100000000000000000000000000000000000000000000000000000000028152600401808273ffffffffffffffffffffffffffffffffffffffff1673ffffffffffffffffffffffffffffffffffffffff168152602001915050602060405180830381600087803b1580156109a157600080fd5b505af11580156109b5573d6000803e3d6000fd5b505050506040513d60208110156109cb57600080fd5b8101908080519060200190929190505050915081851115610a54576040517f08c379a00000000000000000000000000000000000000000000000000000000081526004018080602001828103825260188152602001807f6e6f7420656e6f75676820746f6b656e2062616c616e6365000000000000000081525060200191505060405180910390fd5b8673ffffffffffffffffffffffffffffffffffffffff166323b872dd3388886040518463ffffffff167c0100000000000000000000000000000000000000000000000000000000028152600401808473ffffffffffffffffffffffffffffffffffffffff1673ffffffffffffffffffffffffffffffffffffffff1681526020018373ffffffffffffffffffffffffffffffffffffffff1673ffffffffffffffffffffffffffffffffffffffff1681526020018281526020019350505050602060405180830381600087803b158015610b2b57600080fd5b505af1158015610b3f573d6000803e3d6000fd5b505050506040513d6020811015610b5557600080fd5b810190808051906020019092919050505050600090505b83518160ff161015610c0057838160ff16815181101515610b8957fe5b9060200190602002015173ffffffffffffffffffffffffffffffffffffffff166108fc848360ff16815181101515610bbd57fe5b906020019060200201519081150290604051600060405180830381858888f19350505050158015610bf2573d6000803e3d6000fd5b508080600101915050610b6c565b505050505050505600a165627a7a723058203b6202c8effb004d6b05674beeb151c228c5f46cecc3a935242dc0a9f865f0ad0029",
  "source": "pragma solidity ^0.4.24;\n\nimport \"./HotDogToken.sol\";\nimport \"./ProxyStorage.sol\";\n\ncontract Logic {\n    address public _proxyStorageAddress;\n\n    function etherSendFree(address recipient, uint256 amount) public payable {\n        require(recipient != address(0), \"wrong recipient address\");\n        require(msg.value >= amount, \"wrong amount\");\n\n        recipient.transfer(amount);\n\n        msg.sender.transfer(msg.value - amount);\n    }\n\n    //수수료 처리 방법에 대한 고민 필요\n    //전송하고 혹시라도 남은 이더리움은 어떻게 처리할지 고민 필요\n    //god들에 대한 처리 방법 선정 필요\n    function etherSendWithFee(address recipient, uint256 amount, address[] masters, uint256[] feeAmount) public payable {\n        require(recipient != address(0), \"wrong recipient address\");\n        require(masters.length == feeAmount.length, \"wrong masters' info\");\n        uint256 totalFee;\n        uint8 i;\n        for(i = 0; i<feeAmount.length; i++) {\n            totalFee += feeAmount[i];\n        }\n        require(msg.value >= amount + totalFee, \"wrong amount\");\n\n        recipient.transfer(amount);\n        for(i = 0; i<masters.length; i++) {\n            masters[i].transfer(feeAmount[i]);\n        }\n    }\n\n    //전송하고 혹시라도 남은 이더리움은 어떻게 처리할지 고민 필요\n    function ERC20Send(address tokenAddress, address recipient, uint256 tokenAmount, address[] masters, uint256[] feeAmount) public payable {\n        require(tokenAddress != address(0), \"wrong token address\");\n        require(recipient != address(0), \"wrong recipient address\");\n        require(masters.length == feeAmount.length, \"wrong masters' info\");\n        uint256 balance = ERC20(tokenAddress).balanceOf(msg.sender);\n        if(tokenAmount > balance) {\n            revert(\"not enough token balance\");\n        }\n        ERC20(tokenAddress).transferFrom(msg.sender, recipient, tokenAmount);\n        uint8 i;\n        for(i = 0; i<masters.length; i++) {\n            masters[i].transfer(feeAmount[i]);\n        }\n    }\n}",
  "sourcePath": "/Users/jang-yonghyeon/workspace/blockchain/ethereum/MultiSigWallet/contracts/Logic.sol",
  "compiler": {
    "name": "solc",
    "version": "0.4.25+commit.59dbf8f1.Emscripten.clang"
  },
  "schemaVersion": "2.0.2",
  "updatedAt": "2019-08-08T06:05:26.877Z"
}