{
  "contractName": "MultiSigWalletStorage",
  "abi": [
    {
      "inputs": [
        {
          "name": "depositAddress",
          "type": "address"
        },
        {
          "name": "withdrawAddress",
          "type": "address"
        }
      ],
      "payable": false,
      "stateMutability": "nonpayable",
      "type": "constructor"
    },
    {
      "anonymous": false,
      "inputs": [
        {
          "indexed": false,
          "name": "forwarder",
          "type": "address"
        },
        {
          "indexed": false,
          "name": "amount",
          "type": "uint256"
        }
      ],
      "name": "etherDeposited",
      "type": "event"
    },
    {
      "anonymous": false,
      "inputs": [
        {
          "indexed": false,
          "name": "tokenAddress",
          "type": "address"
        },
        {
          "indexed": false,
          "name": "forwarder",
          "type": "address"
        },
        {
          "indexed": false,
          "name": "amount",
          "type": "uint256"
        }
      ],
      "name": "ERC20Deposited",
      "type": "event"
    },
    {
      "anonymous": false,
      "inputs": [
        {
          "indexed": false,
          "name": "forwarder",
          "type": "address"
        },
        {
          "indexed": false,
          "name": "amount",
          "type": "uint256"
        }
      ],
      "name": "etherWithdrawed",
      "type": "event"
    },
    {
      "anonymous": false,
      "inputs": [
        {
          "indexed": false,
          "name": "tokenAddress",
          "type": "address"
        },
        {
          "indexed": false,
          "name": "forwarder",
          "type": "address"
        },
        {
          "indexed": false,
          "name": "amount",
          "type": "uint256"
        }
      ],
      "name": "ERC20Withdrawed",
      "type": "event"
    },
    {
      "constant": false,
      "inputs": [
        {
          "name": "target",
          "type": "address"
        }
      ],
      "name": "delegateDepositAddress",
      "outputs": [],
      "payable": false,
      "stateMutability": "nonpayable",
      "type": "function"
    },
    {
      "constant": false,
      "inputs": [
        {
          "name": "target",
          "type": "address"
        }
      ],
      "name": "delegateWithdrawAddress",
      "outputs": [],
      "payable": false,
      "stateMutability": "nonpayable",
      "type": "function"
    },
    {
      "constant": true,
      "inputs": [
        {
          "name": "forwarder",
          "type": "address"
        }
      ],
      "name": "isForwarder",
      "outputs": [
        {
          "name": "",
          "type": "bool"
        }
      ],
      "payable": false,
      "stateMutability": "view",
      "type": "function"
    },
    {
      "constant": true,
      "inputs": [
        {
          "name": "client",
          "type": "address"
        }
      ],
      "name": "haveForwarder",
      "outputs": [
        {
          "name": "",
          "type": "bool"
        }
      ],
      "payable": false,
      "stateMutability": "view",
      "type": "function"
    },
    {
      "constant": false,
      "inputs": [
        {
          "name": "forwarder",
          "type": "address"
        },
        {
          "name": "client",
          "type": "address"
        }
      ],
      "name": "addForwarder",
      "outputs": [],
      "payable": false,
      "stateMutability": "nonpayable",
      "type": "function"
    },
    {
      "constant": false,
      "inputs": [
        {
          "name": "client",
          "type": "address"
        }
      ],
      "name": "getForwarderByClient",
      "outputs": [
        {
          "name": "",
          "type": "address"
        }
      ],
      "payable": false,
      "stateMutability": "nonpayable",
      "type": "function"
    },
    {
      "constant": false,
      "inputs": [
        {
          "name": "forwarder",
          "type": "address"
        }
      ],
      "name": "getClientByForwarder",
      "outputs": [
        {
          "name": "",
          "type": "address"
        }
      ],
      "payable": false,
      "stateMutability": "nonpayable",
      "type": "function"
    },
    {
      "constant": true,
      "inputs": [
        {
          "name": "forwarder",
          "type": "address"
        }
      ],
      "name": "getEtherBalance",
      "outputs": [
        {
          "name": "",
          "type": "uint256"
        }
      ],
      "payable": false,
      "stateMutability": "view",
      "type": "function"
    },
    {
      "constant": true,
      "inputs": [
        {
          "name": "tokenAddress",
          "type": "address"
        },
        {
          "name": "forwarder",
          "type": "address"
        }
      ],
      "name": "getERC20Balance",
      "outputs": [
        {
          "name": "",
          "type": "uint256"
        }
      ],
      "payable": false,
      "stateMutability": "view",
      "type": "function"
    },
    {
      "constant": false,
      "inputs": [
        {
          "name": "forwarder",
          "type": "address"
        },
        {
          "name": "amount",
          "type": "uint256"
        }
      ],
      "name": "depositEther",
      "outputs": [],
      "payable": false,
      "stateMutability": "nonpayable",
      "type": "function"
    },
    {
      "constant": false,
      "inputs": [
        {
          "name": "tokenAddress",
          "type": "address"
        },
        {
          "name": "forwarder",
          "type": "address"
        },
        {
          "name": "amount",
          "type": "uint256"
        }
      ],
      "name": "depositERC20",
      "outputs": [],
      "payable": false,
      "stateMutability": "nonpayable",
      "type": "function"
    },
    {
      "constant": false,
      "inputs": [
        {
          "name": "forwarder",
          "type": "address"
        },
        {
          "name": "amount",
          "type": "uint256"
        }
      ],
      "name": "withdrawEther",
      "outputs": [],
      "payable": false,
      "stateMutability": "nonpayable",
      "type": "function"
    },
    {
      "constant": false,
      "inputs": [
        {
          "name": "tokenAddress",
          "type": "address"
        },
        {
          "name": "forwarder",
          "type": "address"
        },
        {
          "name": "amount",
          "type": "uint256"
        }
      ],
      "name": "withdrawERC20",
      "outputs": [],
      "payable": false,
      "stateMutability": "nonpayable",
      "type": "function"
    },
    {
      "constant": false,
      "inputs": [
        {
          "name": "from",
          "type": "address"
        },
        {
          "name": "to",
          "type": "address"
        },
        {
          "name": "",
          "type": "uint256"
        }
      ],
      "name": "sendEtherMember",
      "outputs": [],
      "payable": false,
      "stateMutability": "nonpayable",
      "type": "function"
    }
  ],
  "bytecode": "0x608060405234801561001057600080fd5b506040516040806119638339810180604052810190808051906020019092919080519060200190929190505050816000806101000a81548173ffffffffffffffffffffffffffffffffffffffff021916908373ffffffffffffffffffffffffffffffffffffffff16021790555080600160006101000a81548173ffffffffffffffffffffffffffffffffffffffff021916908373ffffffffffffffffffffffffffffffffffffffff1602179055505050611894806100cf6000396000f3006080604052600436106100d0576000357c0100000000000000000000000000000000000000000000000000000000900463ffffffff1680631cad5a40146100d55780631f7f308214610142578063315fca72146101a557806331a0747f146101e857806344004cc11461026b578063522f6815146102d8578063727b18781461032557806399d5a0ff14610380578063abcef554146103ed578063c3a8962c14610448578063dc45d08e146104bf578063de92019614610516578063e8df1f1014610559578063f16eab65146105a6575b600080fd5b3480156100e157600080fd5b50610140600480360381019080803573ffffffffffffffffffffffffffffffffffffffff169060200190929190803573ffffffffffffffffffffffffffffffffffffffff16906020019092919080359060200190929190505050610629565b005b34801561014e57600080fd5b506101a3600480360381019080803573ffffffffffffffffffffffffffffffffffffffff169060200190929190803573ffffffffffffffffffffffffffffffffffffffff169060200190929190505050610918565b005b3480156101b157600080fd5b506101e6600480360381019080803573ffffffffffffffffffffffffffffffffffffffff169060200190929190505050610adc565b005b3480156101f457600080fd5b50610229600480360381019080803573ffffffffffffffffffffffffffffffffffffffff169060200190929190505050610be3565b604051808273ffffffffffffffffffffffffffffffffffffffff1673ffffffffffffffffffffffffffffffffffffffff16815260200191505060405180910390f35b34801561027757600080fd5b506102d6600480360381019080803573ffffffffffffffffffffffffffffffffffffffff169060200190929190803573ffffffffffffffffffffffffffffffffffffffff16906020019092919080359060200190929190505050610c4c565b005b3480156102e457600080fd5b50610323600480360381019080803573ffffffffffffffffffffffffffffffffffffffff16906020019092919080359060200190929190505050610f3c565b005b34801561033157600080fd5b50610366600480360381019080803573ffffffffffffffffffffffffffffffffffffffff16906020019092919050505061117d565b604051808215151515815260200191505060405180910390f35b34801561038c57600080fd5b506103eb600480360381019080803573ffffffffffffffffffffffffffffffffffffffff169060200190929190803573ffffffffffffffffffffffffffffffffffffffff16906020019092919080359060200190929190505050611225565b005b3480156103f957600080fd5b5061042e600480360381019080803573ffffffffffffffffffffffffffffffffffffffff16906020019092919050505061122a565b604051808215151515815260200191505060405180910390f35b34801561045457600080fd5b506104a9600480360381019080803573ffffffffffffffffffffffffffffffffffffffff169060200190929190803573ffffffffffffffffffffffffffffffffffffffff1690602001909291905050506112d2565b6040518082815260200191505060405180910390f35b3480156104cb57600080fd5b50610500600480360381019080803573ffffffffffffffffffffffffffffffffffffffff169060200190929190505050611359565b6040518082815260200191505060405180910390f35b34801561052257600080fd5b50610557600480360381019080803573ffffffffffffffffffffffffffffffffffffffff1690602001909291905050506113a2565b005b34801561056557600080fd5b506105a4600480360381019080803573ffffffffffffffffffffffffffffffffffffffff169060200190929190803590602001909291905050506114ab565b005b3480156105b257600080fd5b506105e7600480360381019080803573ffffffffffffffffffffffffffffffffffffffff1690602001909291905050506116eb565b604051808273ffffffffffffffffffffffffffffffffffffffff1673ffffffffffffffffffffffffffffffffffffffff16815260200191505060405180910390f35b3373ffffffffffffffffffffffffffffffffffffffff166000809054906101000a900473ffffffffffffffffffffffffffffffffffffffff1673ffffffffffffffffffffffffffffffffffffffff161415156106ed576040517f08c379a00000000000000000000000000000000000000000000000000000000081526004018080602001828103825260128152602001807f6e6f74206465706f7369742077616c6c6574000000000000000000000000000081525060200191505060405180910390fd5b600081111515610765576040517f08c379a000000000000000000000000000000000000000000000000000000000815260040180806020018281038252600c8152602001807f77726f6e6720616d6f756e74000000000000000000000000000000000000000081525060200191505060405180910390fd5b6107f481600360008673ffffffffffffffffffffffffffffffffffffffff1673ffffffffffffffffffffffffffffffffffffffff16815260200190815260200160002060008573ffffffffffffffffffffffffffffffffffffffff1673ffffffffffffffffffffffffffffffffffffffff1681526020019081526020016000205461175490919063ffffffff16565b600360008573ffffffffffffffffffffffffffffffffffffffff1673ffffffffffffffffffffffffffffffffffffffff16815260200190815260200160002060008473ffffffffffffffffffffffffffffffffffffffff1673ffffffffffffffffffffffffffffffffffffffff168152602001908152602001600020819055507fe33e9822e3317b004d587136bab2627ea1ecfbba4eb79abddd0a56cfdd09c0e1838383604051808473ffffffffffffffffffffffffffffffffffffffff1673ffffffffffffffffffffffffffffffffffffffff1681526020018373ffffffffffffffffffffffffffffffffffffffff1673ffffffffffffffffffffffffffffffffffffffff168152602001828152602001935050505060405180910390a1505050565b3373ffffffffffffffffffffffffffffffffffffffff166000809054906101000a900473ffffffffffffffffffffffffffffffffffffffff1673ffffffffffffffffffffffffffffffffffffffff161415156109dc576040517f08c379a00000000000000000000000000000000000000000000000000000000081526004018080602001828103825260128152602001807f6e6f74206465706f7369742077616c6c6574000000000000000000000000000081525060200191505060405180910390fd5b80600460008473ffffffffffffffffffffffffffffffffffffffff1673ffffffffffffffffffffffffffffffffffffffff16815260200190815260200160002060006101000a81548173ffffffffffffffffffffffffffffffffffffffff021916908373ffffffffffffffffffffffffffffffffffffffff16021790555081600560008373ffffffffffffffffffffffffffffffffffffffff1673ffffffffffffffffffffffffffffffffffffffff16815260200190815260200160002060006101000a81548173ffffffffffffffffffffffffffffffffffffffff021916908373ffffffffffffffffffffffffffffffffffffffff1602179055505050565b3373ffffffffffffffffffffffffffffffffffffffff166000809054906101000a900473ffffffffffffffffffffffffffffffffffffffff1673ffffffffffffffffffffffffffffffffffffffff16141515610ba0576040517f08c379a00000000000000000000000000000000000000000000000000000000081526004018080602001828103825260128152602001807f6e6f74206465706f7369742077616c6c6574000000000000000000000000000081525060200191505060405180910390fd5b806000806101000a81548173ffffffffffffffffffffffffffffffffffffffff021916908373ffffffffffffffffffffffffffffffffffffffff16021790555050565b6000600560008373ffffffffffffffffffffffffffffffffffffffff1673ffffffffffffffffffffffffffffffffffffffff16815260200190815260200160002060009054906101000a900473ffffffffffffffffffffffffffffffffffffffff169050919050565b3373ffffffffffffffffffffffffffffffffffffffff16600160009054906101000a900473ffffffffffffffffffffffffffffffffffffffff1673ffffffffffffffffffffffffffffffffffffffff16141515610d11576040517f08c379a00000000000000000000000000000000000000000000000000000000081526004018080602001828103825260138152602001807f6e6f742077697468647261772077616c6c65740000000000000000000000000081525060200191505060405180910390fd5b600081111515610d89576040517f08c379a000000000000000000000000000000000000000000000000000000000815260040180806020018281038252600c8152602001807f77726f6e6720616d6f756e74000000000000000000000000000000000000000081525060200191505060405180910390fd5b610e1881600360008673ffffffffffffffffffffffffffffffffffffffff1673ffffffffffffffffffffffffffffffffffffffff16815260200190815260200160002060008573ffffffffffffffffffffffffffffffffffffffff1673ffffffffffffffffffffffffffffffffffffffff168152602001908152602001600020546117de90919063ffffffff16565b600360008573ffffffffffffffffffffffffffffffffffffffff1673ffffffffffffffffffffffffffffffffffffffff16815260200190815260200160002060008473ffffffffffffffffffffffffffffffffffffffff1673ffffffffffffffffffffffffffffffffffffffff168152602001908152602001600020819055507fa13d16556504b4abd1411af23ec15aafe0cdd6c7e1201c104c47f1ed82ce611c838383604051808473ffffffffffffffffffffffffffffffffffffffff1673ffffffffffffffffffffffffffffffffffffffff1681526020018373ffffffffffffffffffffffffffffffffffffffff1673ffffffffffffffffffffffffffffffffffffffff168152602001828152602001935050505060405180910390a1505050565b3373ffffffffffffffffffffffffffffffffffffffff16600160009054906101000a900473ffffffffffffffffffffffffffffffffffffffff1673ffffffffffffffffffffffffffffffffffffffff16141515611001576040517f08c379a00000000000000000000000000000000000000000000000000000000081526004018080602001828103825260138152602001807f6e6f742077697468647261772077616c6c65740000000000000000000000000081525060200191505060405180910390fd5b600081111515611079576040517f08c379a000000000000000000000000000000000000000000000000000000000815260040180806020018281038252600c8152602001807f77726f6e6720616d6f756e74000000000000000000000000000000000000000081525060200191505060405180910390fd5b6110cb81600260008573ffffffffffffffffffffffffffffffffffffffff1673ffffffffffffffffffffffffffffffffffffffff168152602001908152602001600020546117de90919063ffffffff16565b600260008473ffffffffffffffffffffffffffffffffffffffff1673ffffffffffffffffffffffffffffffffffffffff168152602001908152602001600020819055507f47ed555d8b6242a89fcdab94795dc91c98a0e46db88f4a2b2bda3371956fd0d08282604051808373ffffffffffffffffffffffffffffffffffffffff1673ffffffffffffffffffffffffffffffffffffffff1681526020018281526020019250505060405180910390a15050565b60008073ffffffffffffffffffffffffffffffffffffffff16600560008473ffffffffffffffffffffffffffffffffffffffff1673ffffffffffffffffffffffffffffffffffffffff16815260200190815260200160002060009054906101000a900473ffffffffffffffffffffffffffffffffffffffff1673ffffffffffffffffffffffffffffffffffffffff16141561121b5760009050611220565b600190505b919050565b505050565b60008073ffffffffffffffffffffffffffffffffffffffff16600460008473ffffffffffffffffffffffffffffffffffffffff1673ffffffffffffffffffffffffffffffffffffffff16815260200190815260200160002060009054906101000a900473ffffffffffffffffffffffffffffffffffffffff1673ffffffffffffffffffffffffffffffffffffffff1614156112c857600090506112cd565b600190505b919050565b6000600360008473ffffffffffffffffffffffffffffffffffffffff1673ffffffffffffffffffffffffffffffffffffffff16815260200190815260200160002060008373ffffffffffffffffffffffffffffffffffffffff1673ffffffffffffffffffffffffffffffffffffffff16815260200190815260200160002054905092915050565b6000600260008373ffffffffffffffffffffffffffffffffffffffff1673ffffffffffffffffffffffffffffffffffffffff168152602001908152602001600020549050919050565b3373ffffffffffffffffffffffffffffffffffffffff16600160009054906101000a900473ffffffffffffffffffffffffffffffffffffffff1673ffffffffffffffffffffffffffffffffffffffff16141515611467576040517f08c379a00000000000000000000000000000000000000000000000000000000081526004018080602001828103825260138152602001807f6e6f742077697468647261772077616c6c65740000000000000000000000000081525060200191505060405180910390fd5b80600160006101000a81548173ffffffffffffffffffffffffffffffffffffffff021916908373ffffffffffffffffffffffffffffffffffffffff16021790555050565b3373ffffffffffffffffffffffffffffffffffffffff166000809054906101000a900473ffffffffffffffffffffffffffffffffffffffff1673ffffffffffffffffffffffffffffffffffffffff1614151561156f576040517f08c379a00000000000000000000000000000000000000000000000000000000081526004018080602001828103825260128152602001807f6e6f74206465706f7369742077616c6c6574000000000000000000000000000081525060200191505060405180910390fd5b6000811115156115e7576040517f08c379a000000000000000000000000000000000000000000000000000000000815260040180806020018281038252600c8152602001807f77726f6e6720616d6f756e74000000000000000000000000000000000000000081525060200191505060405180910390fd5b61163981600260008573ffffffffffffffffffffffffffffffffffffffff1673ffffffffffffffffffffffffffffffffffffffff1681526020019081526020016000205461175490919063ffffffff16565b600260008473ffffffffffffffffffffffffffffffffffffffff1673ffffffffffffffffffffffffffffffffffffffff168152602001908152602001600020819055507f4de483450f36dd8489373cf9166b2260f09ae72422d836e12fd9565cec1cb91e8282604051808373ffffffffffffffffffffffffffffffffffffffff1673ffffffffffffffffffffffffffffffffffffffff1681526020018281526020019250505060405180910390a15050565b6000600460008373ffffffffffffffffffffffffffffffffffffffff1673ffffffffffffffffffffffffffffffffffffffff16815260200190815260200160002060009054906101000a900473ffffffffffffffffffffffffffffffffffffffff169050919050565b60008082840190508381101515156117d4576040517f08c379a000000000000000000000000000000000000000000000000000000000815260040180806020018281038252601b8152602001807f536166654d6174683a206164646974696f6e206f766572666c6f77000000000081525060200191505060405180910390fd5b8091505092915050565b600080838311151515611859576040517f08c379a000000000000000000000000000000000000000000000000000000000815260040180806020018281038252601e8152602001807f536166654d6174683a207375627472616374696f6e206f766572666c6f77000081525060200191505060405180910390fd5b828403905080915050929150505600a165627a7a72305820533c6c093e162cff5220da0cb4aca0999d2d2d5c0f01a40aabb1b7ec84bc43140029",
  "source": "pragma solidity ^0.4.24;\n\nimport \"./SafeMath.sol\";\n\ncontract MultiSigWalletStorage  {\n    using SafeMath for uint256;\n\n    address private _depositAddress;\n    address private _withdrawAddress;\n\n    modifier onlyDepositWallet {\n    if (_depositAddress != msg.sender) {\n      revert(\"not deposit wallet\");\n    }\n    _;\n  }\n\n  modifier onlyWithdrawWallet {\n    if (_withdrawAddress != msg.sender) {\n      revert(\"not withdraw wallet\");\n    }\n    _;\n  }\n\n    //_etherBalances: forwarder => balance\n    //_ERC20Balances: tokenAddress => forwarder => balance\n    mapping(address => uint256) private _etherBalances;\n    mapping(address => mapping(address => uint256)) private _ERC20Balances;\n    mapping(address => address) private _forwarderToClient;\n    mapping(address => address) private _clientToForwarder;\n\n    constructor (address depositAddress, address withdrawAddress) public {\n        _depositAddress = depositAddress;\n        _withdrawAddress = withdrawAddress;\n    }\n\n    //보안을 위해 이 기능은 업는 것도 고려해볼만함\n    function delegateDepositAddress(address target) public onlyDepositWallet {\n        _depositAddress = target;\n    }\n\n    //보안을 위해 이 기능은 업는 것도 고려해볼만함\n    function delegateWithdrawAddress(address target) public onlyWithdrawWallet {\n        _withdrawAddress = target;\n    }\n\n    function isForwarder(address forwarder) public view returns(bool) {\n        if(_forwarderToClient[forwarder] == address(0)) {\n            return false;\n        } else {\n            return true;\n        }\n    }\n\n    function haveForwarder(address client) public view returns(bool) {\n        if(_clientToForwarder[client] == address(0)) {\n            return false;\n        } else {\n            return true;\n        }\n    }\n\n    function addForwarder(address forwarder, address client) public onlyDepositWallet {\n        _forwarderToClient[forwarder] = client;\n        _clientToForwarder[client] = forwarder;\n    }\n\n    function getForwarderByClient(address client) public returns(address) {\n        return _clientToForwarder[client];\n    }\n\n    function getClientByForwarder(address forwarder) public returns(address) {\n        return _forwarderToClient[forwarder];\n    }\n\n    function getEtherBalance(address forwarder) public view returns(uint256) {\n        return _etherBalances[forwarder];\n    }\n\n    function getERC20Balance(address tokenAddress, address forwarder) public view returns(uint256) {\n        return _ERC20Balances[tokenAddress][forwarder];\n    }\n    \n    function depositEther(address forwarder, uint256 amount) public onlyDepositWallet {\n        require(amount > 0, \"wrong amount\");\n        _etherBalances[forwarder] = _etherBalances[forwarder].add(amount);\n\n        emit etherDeposited(forwarder, amount);\n    }\n\n    function depositERC20(address tokenAddress, address forwarder, uint256 amount) public onlyDepositWallet {\n        require(amount > 0, \"wrong amount\");\n       _ERC20Balances[tokenAddress][forwarder] = _ERC20Balances[tokenAddress][forwarder].add(amount);\n\n        emit ERC20Deposited(tokenAddress, forwarder, amount);\n    }\n\n    function withdrawEther(address forwarder, uint256 amount) public onlyWithdrawWallet {\n        //balance 체크 필요\n        require(amount > 0, \"wrong amount\");\n        \n        _etherBalances[forwarder] = _etherBalances[forwarder].sub(amount);\n\n        emit etherWithdrawed(forwarder, amount);\n    }\n\n    function withdrawERC20(address tokenAddress, address forwarder, uint256 amount) public onlyWithdrawWallet {\n        //balance 체크 필요\n        require(amount > 0, \"wrong amount\");\n        \n        _ERC20Balances[tokenAddress][forwarder] = _ERC20Balances[tokenAddress][forwarder].sub(amount);\n\n        emit ERC20Withdrawed(tokenAddress, forwarder, amount);\n    }\n\n    function sendEtherMember(address from, address to, uint256) public {\n\n    }\n\n    event etherDeposited(address forwarder, uint256 amount);\n    event ERC20Deposited(address tokenAddress, address forwarder, uint256 amount);\n    event etherWithdrawed(address forwarder, uint256 amount);\n    event ERC20Withdrawed(address tokenAddress, address forwarder, uint256 amount);\n}",
  "sourcePath": "/Users/jang-yonghyeon/workspace/blockchain/ethereum/MultiSigWallet/contracts/MultiSigWalletStorage.sol",
  "compiler": {
    "name": "solc",
    "version": "0.4.25+commit.59dbf8f1.Emscripten.clang"
  },
  "schemaVersion": "2.0.2",
  "updatedAt": "2019-08-07T01:26:43.225Z"
}