{
  "contractName": "WalletSimple",
  "abi": [
    {
      "constant": true,
      "inputs": [
        {
          "name": "",
          "type": "uint256"
        }
      ],
      "name": "signers",
      "outputs": [
        {
          "name": "",
          "type": "address"
        }
      ],
      "payable": false,
      "stateMutability": "view",
      "type": "function"
    },
    {
      "constant": true,
      "inputs": [
        {
          "name": "",
          "type": "uint256"
        }
      ],
      "name": "unassignedForwarder",
      "outputs": [
        {
          "name": "",
          "type": "address"
        }
      ],
      "payable": false,
      "stateMutability": "view",
      "type": "function"
    },
    {
      "constant": true,
      "inputs": [],
      "name": "safeMode",
      "outputs": [
        {
          "name": "",
          "type": "bool"
        }
      ],
      "payable": false,
      "stateMutability": "view",
      "type": "function"
    },
    {
      "inputs": [
        {
          "name": "allowedSigners",
          "type": "address[]"
        }
      ],
      "payable": false,
      "stateMutability": "nonpayable",
      "type": "constructor"
    },
    {
      "payable": true,
      "stateMutability": "payable",
      "type": "fallback"
    },
    {
      "anonymous": false,
      "inputs": [
        {
          "indexed": false,
          "name": "from",
          "type": "address"
        },
        {
          "indexed": false,
          "name": "value",
          "type": "uint256"
        },
        {
          "indexed": false,
          "name": "data",
          "type": "bytes"
        }
      ],
      "name": "Deposited",
      "type": "event"
    },
    {
      "anonymous": false,
      "inputs": [
        {
          "indexed": false,
          "name": "msgSender",
          "type": "address"
        }
      ],
      "name": "SafeModeActivated",
      "type": "event"
    },
    {
      "anonymous": false,
      "inputs": [
        {
          "indexed": false,
          "name": "msgSender",
          "type": "address"
        },
        {
          "indexed": false,
          "name": "otherSigner",
          "type": "address"
        },
        {
          "indexed": false,
          "name": "operation",
          "type": "bytes32"
        },
        {
          "indexed": false,
          "name": "toAddress",
          "type": "address"
        },
        {
          "indexed": false,
          "name": "value",
          "type": "uint256"
        },
        {
          "indexed": false,
          "name": "data",
          "type": "bytes"
        }
      ],
      "name": "Transacted",
      "type": "event"
    },
    {
      "anonymous": false,
      "inputs": [
        {
          "indexed": false,
          "name": "msgSender",
          "type": "address"
        },
        {
          "indexed": false,
          "name": "otherSigner",
          "type": "address"
        },
        {
          "indexed": false,
          "name": "operation",
          "type": "bytes32"
        },
        {
          "indexed": false,
          "name": "toAddress",
          "type": "address"
        },
        {
          "indexed": false,
          "name": "value",
          "type": "uint256"
        },
        {
          "indexed": false,
          "name": "tokenContractAddress",
          "type": "address"
        }
      ],
      "name": "TokenTransacted",
      "type": "event"
    },
    {
      "constant": false,
      "inputs": [],
      "name": "showSender",
      "outputs": [
        {
          "name": "",
          "type": "address"
        }
      ],
      "payable": false,
      "stateMutability": "nonpayable",
      "type": "function"
    },
    {
      "constant": false,
      "inputs": [
        {
          "name": "target",
          "type": "address"
        }
      ],
      "name": "setStorageAddress",
      "outputs": [],
      "payable": false,
      "stateMutability": "nonpayable",
      "type": "function"
    },
    {
      "constant": false,
      "inputs": [],
      "name": "createForwarder",
      "outputs": [
        {
          "name": "",
          "type": "address"
        }
      ],
      "payable": false,
      "stateMutability": "nonpayable",
      "type": "function"
    },
    {
      "constant": false,
      "inputs": [
        {
          "name": "client",
          "type": "address"
        }
      ],
      "name": "assignForwarder",
      "outputs": [
        {
          "name": "",
          "type": "address"
        }
      ],
      "payable": false,
      "stateMutability": "nonpayable",
      "type": "function"
    },
    {
      "constant": true,
      "inputs": [],
      "name": "showUnassignedForwarder",
      "outputs": [
        {
          "name": "",
          "type": "address[]"
        }
      ],
      "payable": false,
      "stateMutability": "view",
      "type": "function"
    },
    {
      "constant": true,
      "inputs": [],
      "name": "getNumOfUnassignedForwarder",
      "outputs": [
        {
          "name": "",
          "type": "uint256"
        }
      ],
      "payable": false,
      "stateMutability": "view",
      "type": "function"
    },
    {
      "constant": false,
      "inputs": [
        {
          "name": "toAddress",
          "type": "address"
        },
        {
          "name": "value",
          "type": "uint256"
        },
        {
          "name": "data",
          "type": "bytes"
        },
        {
          "name": "expireTime",
          "type": "uint256"
        },
        {
          "name": "sequenceId",
          "type": "uint256"
        },
        {
          "name": "signature",
          "type": "bytes"
        }
      ],
      "name": "sendMultiSig",
      "outputs": [],
      "payable": false,
      "stateMutability": "nonpayable",
      "type": "function"
    },
    {
      "constant": false,
      "inputs": [
        {
          "name": "toAddress",
          "type": "address"
        },
        {
          "name": "value",
          "type": "uint256"
        },
        {
          "name": "tokenContractAddress",
          "type": "address"
        },
        {
          "name": "expireTime",
          "type": "uint256"
        },
        {
          "name": "sequenceId",
          "type": "uint256"
        },
        {
          "name": "signature",
          "type": "bytes"
        }
      ],
      "name": "sendMultiSigToken",
      "outputs": [],
      "payable": false,
      "stateMutability": "nonpayable",
      "type": "function"
    },
    {
      "constant": false,
      "inputs": [
        {
          "name": "forwarderAddress",
          "type": "address"
        },
        {
          "name": "tokenContractAddress",
          "type": "address"
        }
      ],
      "name": "flushForwarderTokens",
      "outputs": [],
      "payable": false,
      "stateMutability": "nonpayable",
      "type": "function"
    },
    {
      "constant": false,
      "inputs": [],
      "name": "activateSafeMode",
      "outputs": [],
      "payable": false,
      "stateMutability": "nonpayable",
      "type": "function"
    },
    {
      "constant": true,
      "inputs": [
        {
          "name": "signer",
          "type": "address"
        }
      ],
      "name": "isSigner",
      "outputs": [
        {
          "name": "",
          "type": "bool"
        }
      ],
      "payable": false,
      "stateMutability": "view",
      "type": "function"
    },
    {
      "constant": true,
      "inputs": [],
      "name": "getNextSequenceId",
      "outputs": [
        {
          "name": "",
          "type": "uint256"
        }
      ],
      "payable": false,
      "stateMutability": "view",
      "type": "function"
    },
    {
      "constant": true,
      "inputs": [],
      "name": "isSetted",
      "outputs": [
        {
          "name": "",
          "type": "bool"
        }
      ],
      "payable": false,
      "stateMutability": "view",
      "type": "function"
    }
  ],
  "bytecode": "0x60806040526000600160006101000a81548160ff0219169083151502179055503480156200002c57600080fd5b506040516200282a3803806200282a83398101806040528101908080518201929190505050600381511415156200006257600080fd5b80600090805190602001906200007a92919062000082565b505062000157565b828054828255906000526020600020908101928215620000fe579160200282015b82811115620000fd5782518260006101000a81548173ffffffffffffffffffffffffffffffffffffffff021916908373ffffffffffffffffffffffffffffffffffffffff16021790555091602001919060010190620000a3565b5b5090506200010d919062000111565b5090565b6200015491905b808211156200015057600081816101000a81549073ffffffffffffffffffffffffffffffffffffffff02191690555060010162000118565b5090565b90565b6126c380620001676000396000f3006080604052600436106100e6576000357c0100000000000000000000000000000000000000000000000000000000900463ffffffff1680630dcd7a6c1461025d57806310c3c368146103245780631be87e581461034f5780632079fb9a146103bb5780632da0340914610428578063391252151461048b57806359b910d6146105785780637055dffd146105bb5780637df73e27146105ea57806390fda03014610645578063a0b7967b146106b2578063a4d64ff4146106dd578063a68a76cc14610734578063abe3219c1461078b578063de815b81146107ba578063fc0f392d1461083d575b600034111561025b57600d60009054906101000a900473ffffffffffffffffffffffffffffffffffffffff1673ffffffffffffffffffffffffffffffffffffffff1663e8df1f1033346040518363ffffffff167c0100000000000000000000000000000000000000000000000000000000028152600401808373ffffffffffffffffffffffffffffffffffffffff1673ffffffffffffffffffffffffffffffffffffffff16815260200182815260200192505050600060405180830381600087803b1580156101b457600080fd5b505af11580156101c8573d6000803e3d6000fd5b505050507f6e89d517057028190560dd200cf6bf792842861353d1173761dfa362e1c133f03334600036604051808573ffffffffffffffffffffffffffffffffffffffff1673ffffffffffffffffffffffffffffffffffffffff16815260200184815260200180602001828103825284848281815260200192508082843782019150509550505050505060405180910390a15b005b34801561026957600080fd5b50610322600480360381019080803573ffffffffffffffffffffffffffffffffffffffff16906020019092919080359060200190929190803573ffffffffffffffffffffffffffffffffffffffff1690602001909291908035906020019092919080359060200190929190803590602001908201803590602001908080601f0160208091040260200160405190810160405280939291908181526020018383808284378201915050505050509192919290505050610854565b005b34801561033057600080fd5b50610339610bbf565b6040518082815260200191505060405180910390f35b34801561035b57600080fd5b50610364610bcc565b6040518080602001828103825283818151815260200191508051906020019060200280838360005b838110156103a757808201518184015260208101905061038c565b505050509050019250505060405180910390f35b3480156103c757600080fd5b506103e660048036038101908080359060200190929190505050610c5a565b604051808273ffffffffffffffffffffffffffffffffffffffff1673ffffffffffffffffffffffffffffffffffffffff16815260200191505060405180910390f35b34801561043457600080fd5b50610489600480360381019080803573ffffffffffffffffffffffffffffffffffffffff169060200190929190803573ffffffffffffffffffffffffffffffffffffffff169060200190929190505050610c98565b005b34801561049757600080fd5b50610576600480360381019080803573ffffffffffffffffffffffffffffffffffffffff16906020019092919080359060200190929190803590602001908201803590602001908080601f01602080910402602001604051908101604052809392919081815260200183838082843782019150505050505091929192908035906020019092919080359060200190929190803590602001908201803590602001908080601f0160208091040260200160405190810160405280939291908181526020018383808284378201915050505050509192919290505050610dd2565b005b34801561058457600080fd5b506105b9600480360381019080803573ffffffffffffffffffffffffffffffffffffffff1690602001909291905050506110ea565b005b3480156105c757600080fd5b506105d06111ab565b604051808215151515815260200191505060405180910390f35b3480156105f657600080fd5b5061062b600480360381019080803573ffffffffffffffffffffffffffffffffffffffff169060200190929190505050611214565b604051808215151515815260200191505060405180910390f35b34801561065157600080fd5b50610670600480360381019080803590602001909291905050506112b7565b604051808273ffffffffffffffffffffffffffffffffffffffff1673ffffffffffffffffffffffffffffffffffffffff16815260200191505060405180910390f35b3480156106be57600080fd5b506106c76112f5565b6040518082815260200191505060405180910390f35b3480156106e957600080fd5b506106f261134f565b604051808273ffffffffffffffffffffffffffffffffffffffff1673ffffffffffffffffffffffffffffffffffffffff16815260200191505060405180910390f35b34801561074057600080fd5b50610749611357565b604051808273ffffffffffffffffffffffffffffffffffffffff1673ffffffffffffffffffffffffffffffffffffffff16815260200191505060405180910390f35b34801561079757600080fd5b506107a061146b565b604051808215151515815260200191505060405180910390f35b3480156107c657600080fd5b506107fb600480360381019080803573ffffffffffffffffffffffffffffffffffffffff16906020019092919050505061147e565b604051808273ffffffffffffffffffffffffffffffffffffffff1673ffffffffffffffffffffffffffffffffffffffff16815260200191505060405180910390f35b34801561084957600080fd5b506108526117b6565b005b600080600061086233611214565b15156108d6576040517f08c379a000000000000000000000000000000000000000000000000000000000815260040180806020018281038252600a8152602001807f6e6f74207369676e65720000000000000000000000000000000000000000000081525060200191505060405180910390fd5b888888888860405180807f45524332300000000000000000000000000000000000000000000000000000008152506005018673ffffffffffffffffffffffffffffffffffffffff1673ffffffffffffffffffffffffffffffffffffffff166c010000000000000000000000000281526014018581526020018473ffffffffffffffffffffffffffffffffffffffff1673ffffffffffffffffffffffffffffffffffffffff166c0100000000000000000000000002815260140183815260200182815260200195505050505050604051809103902092506109b989848689896118b2565b91508690508073ffffffffffffffffffffffffffffffffffffffff1663a9059cbb8a8a6040518363ffffffff167c0100000000000000000000000000000000000000000000000000000000028152600401808373ffffffffffffffffffffffffffffffffffffffff1673ffffffffffffffffffffffffffffffffffffffff16815260200182815260200192505050602060405180830381600087803b158015610a6157600080fd5b505af1158015610a75573d6000803e3d6000fd5b505050506040513d6020811015610a8b57600080fd5b8101908080519060200190929190505050507ff3574a20a6defd7fc26917e8013cdd578db5eaa4d9a3eb54f2bb0983ad8ab40d3383858c8c8c604051808773ffffffffffffffffffffffffffffffffffffffff1673ffffffffffffffffffffffffffffffffffffffff1681526020018673ffffffffffffffffffffffffffffffffffffffff1673ffffffffffffffffffffffffffffffffffffffff16815260200185600019166000191681526020018473ffffffffffffffffffffffffffffffffffffffff1673ffffffffffffffffffffffffffffffffffffffff1681526020018381526020018273ffffffffffffffffffffffffffffffffffffffff1673ffffffffffffffffffffffffffffffffffffffff168152602001965050505050505060405180910390a1505050505050505050565b6000600c80549050905090565b6060600c805480602002602001604051908101604052809291908181526020018280548015610c5057602002820191906000526020600020905b8160009054906101000a900473ffffffffffffffffffffffffffffffffffffffff1673ffffffffffffffffffffffffffffffffffffffff1681526020019060010190808311610c06575b5050505050905090565b600081815481101515610c6957fe5b906000526020600020016000915054906101000a900473ffffffffffffffffffffffffffffffffffffffff1681565b6000610ca333611214565b1515610d17576040517f08c379a000000000000000000000000000000000000000000000000000000000815260040180806020018281038252600a8152602001807f6e6f74207369676e65720000000000000000000000000000000000000000000081525060200191505060405180910390fd5b8290508073ffffffffffffffffffffffffffffffffffffffff16633ef13367836040518263ffffffff167c0100000000000000000000000000000000000000000000000000000000028152600401808273ffffffffffffffffffffffffffffffffffffffff1673ffffffffffffffffffffffffffffffffffffffff168152602001915050600060405180830381600087803b158015610db557600080fd5b505af1158015610dc9573d6000803e3d6000fd5b50505050505050565b600080610dde33611214565b1515610e52576040517f08c379a000000000000000000000000000000000000000000000000000000000815260040180806020018281038252600a8152602001807f6e6f74207369676e65720000000000000000000000000000000000000000000081525060200191505060405180910390fd5b878787878760405180807f45544845520000000000000000000000000000000000000000000000000000008152506005018673ffffffffffffffffffffffffffffffffffffffff1673ffffffffffffffffffffffffffffffffffffffff166c0100000000000000000000000002815260140185815260200184805190602001908083835b602083101515610efb5780518252602082019150602081019050602083039250610ed6565b6001836020036101000a0380198251168184511680821785525050505050509050018381526020018281526020019550505050505060405180910390209150610f4788838588886118b2565b90508773ffffffffffffffffffffffffffffffffffffffff166108fc889081150290604051600060405180830381858888f19350505050158015610f8f573d6000803e3d6000fd5b507f59bed9ab5d78073465dd642a9e3e76dfdb7d53bcae9d09df7d0b8f5234d5a8063382848b8b8b604051808773ffffffffffffffffffffffffffffffffffffffff1673ffffffffffffffffffffffffffffffffffffffff1681526020018673ffffffffffffffffffffffffffffffffffffffff1673ffffffffffffffffffffffffffffffffffffffff16815260200185600019166000191681526020018473ffffffffffffffffffffffffffffffffffffffff1673ffffffffffffffffffffffffffffffffffffffff16815260200183815260200180602001828103825283818151815260200191508051906020019080838360005b838110156110a1578082015181840152602081019050611086565b50505050905090810190601f1680156110ce5780820380516001836020036101000a031916815260200191505b5097505050505050505060405180910390a15050505050505050565b6110f333611214565b1515611167576040517f08c379a000000000000000000000000000000000000000000000000000000000815260040180806020018281038252600a8152602001807f6e6f74207369676e65720000000000000000000000000000000000000000000081525060200191505060405180910390fd5b80600d60006101000a81548173ffffffffffffffffffffffffffffffffffffffff021916908373ffffffffffffffffffffffffffffffffffffffff16021790555050565b60008073ffffffffffffffffffffffffffffffffffffffff16600d60009054906101000a900473ffffffffffffffffffffffffffffffffffffffff1673ffffffffffffffffffffffffffffffffffffffff16141561120c5760009050611211565b600190505b90565b600080600090505b6000805490508110156112ac578273ffffffffffffffffffffffffffffffffffffffff1660008281548110151561124f57fe5b9060005260206000200160009054906101000a900473ffffffffffffffffffffffffffffffffffffffff1673ffffffffffffffffffffffffffffffffffffffff16141561129f57600191506112b1565b808060010191505061121c565b600091505b50919050565b600c818154811015156112c657fe5b906000526020600020016000915054906101000a900473ffffffffffffffffffffffffffffffffffffffff1681565b6000806000809150600090505b600a8110156113445781600282600a8110151561131b57fe5b0154111561133757600281600a8110151561133257fe5b015491505b8080600101915050611302565b600182019250505090565b600033905090565b60008061136333611214565b15156113d7576040517f08c379a000000000000000000000000000000000000000000000000000000000815260040180806020018281038252600a8152602001807f6e6f74207369676e65720000000000000000000000000000000000000000000081525060200191505060405180910390fd5b6113df611b6a565b604051809103906000f0801580156113fb573d6000803e3d6000fd5b509050600c8190806001815401808255809150509060018203906000526020600020016000909192909190916101000a81548173ffffffffffffffffffffffffffffffffffffffff021916908373ffffffffffffffffffffffffffffffffffffffff160217905550508091505090565b600160009054906101000a900460ff1681565b600080600080600061148f33611214565b1515611503576040517f08c379a000000000000000000000000000000000000000000000000000000000815260040180806020018281038252600a8152602001807f6e6f74207369676e65720000000000000000000000000000000000000000000081525060200191505060405180910390fd5b600061150d610bbf565b14151515611583576040517f08c379a000000000000000000000000000000000000000000000000000000000815260040180806020018281038252600a8152602001807f6e6f7420656e6f7567680000000000000000000000000000000000000000000081525060200191505060405180910390fd5b600c805490509350600c6001850381548110151561159d57fe5b9060005260206000200160009054906101000a900473ffffffffffffffffffffffffffffffffffffffff1692508291508173ffffffffffffffffffffffffffffffffffffffff1663a3907d716040518163ffffffff167c0100000000000000000000000000000000000000000000000000000000028152600401600060405180830381600087803b15801561163157600080fd5b505af1158015611645573d6000803e3d6000fd5b50505050600d60009054906101000a900473ffffffffffffffffffffffffffffffffffffffff1690508073ffffffffffffffffffffffffffffffffffffffff16631f7f308284886040518363ffffffff167c0100000000000000000000000000000000000000000000000000000000028152600401808373ffffffffffffffffffffffffffffffffffffffff1673ffffffffffffffffffffffffffffffffffffffff1681526020018273ffffffffffffffffffffffffffffffffffffffff1673ffffffffffffffffffffffffffffffffffffffff16815260200192505050600060405180830381600087803b15801561173d57600080fd5b505af1158015611751573d6000803e3d6000fd5b50505050600c6001850381548110151561176757fe5b9060005260206000200160006101000a81549073ffffffffffffffffffffffffffffffffffffffff0219169055600c8054809190600190036117a99190611b7a565b5082945050505050919050565b6117bf33611214565b1515611833576040517f08c379a000000000000000000000000000000000000000000000000000000000815260040180806020018281038252600a8152602001807f6e6f74207369676e65720000000000000000000000000000000000000000000081525060200191505060405180910390fd5b60018060006101000a81548160ff0219169083151502179055507f0909e8f76a4fd3e970f2eaef56c0ee6dfaf8b87c5b8d3f56ffce78e825a9115733604051808273ffffffffffffffffffffffffffffffffffffffff1673ffffffffffffffffffffffffffffffffffffffff16815260200191505060405180910390a1565b6000806118bf868661195d565b9050600160009054906101000a900460ff1680156118e357506118e187611214565b155b156118ed57600080fd5b428410156118fa57600080fd5b61190383611a2a565b61190c81611214565b151561191757600080fd5b3373ffffffffffffffffffffffffffffffffffffffff168173ffffffffffffffffffffffffffffffffffffffff16141561195057600080fd5b8091505095945050505050565b6000806000806041855114151561197357600080fd5b602085015192506040850151915060ff6041860151169050601b8160ff16101561199e57601b810190505b600186828585604051600081526020016040526040518085600019166000191681526020018460ff1660ff1681526020018360001916600019168152602001826000191660001916815260200194505050505060206040516020810390808403906000865af1158015611a15573d6000803e3d6000fd5b50505060206040510351935050505092915050565b600080611a3633611214565b1515611aaa576040517f08c379a000000000000000000000000000000000000000000000000000000000815260040180806020018281038252600a8152602001807f6e6f74207369676e65720000000000000000000000000000000000000000000081525060200191505060405180910390fd5b60009150600090505b600a811015611b125782600282600a81101515611acc57fe5b01541415611ad957600080fd5b600282600a81101515611ae857fe5b0154600282600a81101515611af957fe5b01541015611b05578091505b8080600101915050611ab3565b600282600a81101515611b2157fe5b0154831015611b2f57600080fd5b612710600283600a81101515611b4157fe5b015401831115611b5057600080fd5b82600283600a81101515611b6057fe5b0181905550505050565b604051610acc80611bcc83390190565b815481835581811115611ba157818360005260206000209182019101611ba09190611ba6565b5b505050565b611bc891905b80821115611bc4576000816000905550600101611bac565b5090565b905600608060405260008060146101000a81548160ff02191690831515021790555034801561002a57600080fd5b50336000806101000a81548173ffffffffffffffffffffffffffffffffffffffff021916908373ffffffffffffffffffffffffffffffffffffffff160217905550610a528061007a6000396000f30060806040526004361061008d576000357c0100000000000000000000000000000000000000000000000000000000900463ffffffff168062821de3146101a757806315dacbea146101fe5780631865c57d1461028b5780632f2770db146102ba5780633ef13367146102d15780636b9f96ea14610314578063a3907d711461032b578063c19d93fb14610342575b60011515600060149054906101000a900460ff1615151415156100af57600080fd5b6000809054906101000a900473ffffffffffffffffffffffffffffffffffffffff1673ffffffffffffffffffffffffffffffffffffffff166108fc349081150290604051600060405180830381858888f19350505050158015610116573d6000803e3d6000fd5b507f69b31548dea9b3b707b4dff357d326e3e9348b24e7a6080a218a6edeeec48f9b3334600036604051808573ffffffffffffffffffffffffffffffffffffffff1673ffffffffffffffffffffffffffffffffffffffff16815260200184815260200180602001828103825284848281815260200192508082843782019150509550505050505060405180910390a1005b3480156101b357600080fd5b506101bc610371565b604051808273ffffffffffffffffffffffffffffffffffffffff1673ffffffffffffffffffffffffffffffffffffffff16815260200191505060405180910390f35b34801561020a57600080fd5b50610289600480360381019080803573ffffffffffffffffffffffffffffffffffffffff169060200190929190803573ffffffffffffffffffffffffffffffffffffffff169060200190929190803573ffffffffffffffffffffffffffffffffffffffff16906020019092919080359060200190929190505050610396565b005b34801561029757600080fd5b506102a06104af565b604051808215151515815260200191505060405180910390f35b3480156102c657600080fd5b506102cf6104c5565b005b3480156102dd57600080fd5b50610312600480360381019080803573ffffffffffffffffffffffffffffffffffffffff16906020019092919050505061053c565b005b34801561032057600080fd5b5061032961088f565b005b34801561033757600080fd5b5061034061099b565b005b34801561034e57600080fd5b50610357610a13565b604051808215151515815260200191505060405180910390f35b6000809054906101000a900473ffffffffffffffffffffffffffffffffffffffff1681565b8373ffffffffffffffffffffffffffffffffffffffff166323b872dd8484846040518463ffffffff167c0100000000000000000000000000000000000000000000000000000000028152600401808473ffffffffffffffffffffffffffffffffffffffff1673ffffffffffffffffffffffffffffffffffffffff1681526020018373ffffffffffffffffffffffffffffffffffffffff1673ffffffffffffffffffffffffffffffffffffffff1681526020018281526020019350505050602060405180830381600087803b15801561046d57600080fd5b505af1158015610481573d6000803e3d6000fd5b505050506040513d602081101561049757600080fd5b81019080805190602001909291905050505050505050565b60008060149054906101000a900460ff16905090565b6000809054906101000a900473ffffffffffffffffffffffffffffffffffffffff1673ffffffffffffffffffffffffffffffffffffffff163373ffffffffffffffffffffffffffffffffffffffff1614151561052057600080fd5b60008060146101000a81548160ff021916908315150217905550565b60008060008060009054906101000a900473ffffffffffffffffffffffffffffffffffffffff1673ffffffffffffffffffffffffffffffffffffffff163373ffffffffffffffffffffffffffffffffffffffff1614151561059c57600080fd5b60011515600060149054906101000a900460ff161515141515610627576040517f08c379a00000000000000000000000000000000000000000000000000000000081526004018080602001828103825260098152602001807f6f6666207374617465000000000000000000000000000000000000000000000081525060200191505060405180910390fd5b8392503091508273ffffffffffffffffffffffffffffffffffffffff166370a08231836040518263ffffffff167c0100000000000000000000000000000000000000000000000000000000028152600401808273ffffffffffffffffffffffffffffffffffffffff1673ffffffffffffffffffffffffffffffffffffffff168152602001915050602060405180830381600087803b1580156106c857600080fd5b505af11580156106dc573d6000803e3d6000fd5b505050506040513d60208110156106f257600080fd5b81019080805190602001909291905050509050600081141561071357610889565b8273ffffffffffffffffffffffffffffffffffffffff1663a9059cbb6000809054906101000a900473ffffffffffffffffffffffffffffffffffffffff16836040518363ffffffff167c0100000000000000000000000000000000000000000000000000000000028152600401808373ffffffffffffffffffffffffffffffffffffffff1673ffffffffffffffffffffffffffffffffffffffff16815260200182815260200192505050602060405180830381600087803b1580156107d757600080fd5b505af11580156107eb573d6000803e3d6000fd5b505050506040513d602081101561080157600080fd5b8101908080519060200190929190505050151561081d57600080fd5b7f9401e4e79c19cbe2bd774cb70a94ba660e6718be1bac1298ab3b07f454a608218482604051808373ffffffffffffffffffffffffffffffffffffffff1673ffffffffffffffffffffffffffffffffffffffff1681526020018281526020019250505060405180910390a15b50505050565b60011515600060149054906101000a900460ff16151514151561091a576040517f08c379a00000000000000000000000000000000000000000000000000000000081526004018080602001828103825260098152602001807f6f6666207374617465000000000000000000000000000000000000000000000081525060200191505060405180910390fd5b6000809054906101000a900473ffffffffffffffffffffffffffffffffffffffff1673ffffffffffffffffffffffffffffffffffffffff166108fc3073ffffffffffffffffffffffffffffffffffffffff16319081150290604051600060405180830381858888f19350505050158015610998573d6000803e3d6000fd5b50565b6000809054906101000a900473ffffffffffffffffffffffffffffffffffffffff1673ffffffffffffffffffffffffffffffffffffffff163373ffffffffffffffffffffffffffffffffffffffff161415156109f657600080fd5b6001600060146101000a81548160ff021916908315150217905550565b600060149054906101000a900460ff16815600a165627a7a723058206638068458cbbfa759204c4118801776e03296e5991d8a3a90262de9cee62def0029a165627a7a72305820375f8dbdd759a6c372aaf6d184c65195e40ff699359de2ac25c3b57afef99cbe0029",
  "source": "pragma solidity ^0.4.24;\n\nimport \"./MultiSigWalletStorage.sol\";\n\ncontract ERC20Interface {\n  // Send _value amount of tokens to address _to\n  function transfer(address _to, uint256 _value) public returns (bool success);\n  // Get the account balance of another account with address _owner\n  function balanceOf(address _owner) public view returns (uint256 balance);\n\n  function transferFrom(address sender, address recipient, uint256 amount) external returns (bool);\n}\n\ncontract Forwarder {\n  address public parentAddress;\n  bool public state = false;\n  event ForwarderDeposited(address from, uint value, bytes data);\n\n  event TokensFlushed(\n    address tokenContractAddress,\n    uint value\n  );\n\n  constructor () public {\n    parentAddress = msg.sender;\n  }\n\n  modifier onlyParent {\n    if (msg.sender != parentAddress) {\n      revert();\n    }\n    _;\n  }\n\n  function() public payable {\n    if(state != true) {\n        revert();\n    }\n\n    parentAddress.transfer(msg.value);\n\n    emit ForwarderDeposited(msg.sender, msg.value, msg.data);\n  }\n\n  function flushTokens(address tokenContractAddress) public onlyParent {\n    require(state == true, \"off state\");\n    ERC20Interface instance = ERC20Interface(tokenContractAddress);\n    address forwarderAddress = address(this);\n    uint256 forwarderBalance = instance.balanceOf(forwarderAddress);\n    if (forwarderBalance == 0) {\n      return;\n    }\n    if (!instance.transfer(parentAddress, forwarderBalance)) {\n      revert();\n    }\n    emit TokensFlushed(tokenContractAddress, forwarderBalance);\n  }\n\n  function flush() public {\n    require(state == true, \"off state\");\n    parentAddress.transfer(address(this).balance);\n  }\n\n  function enable() public onlyParent {\n      state = true;\n  }\n\n  function disable() public onlyParent {\n      state = false;\n  }\n\n  function getState() public view returns(bool) {\n      return state;\n  }\n\n  function transferFrom(address tokenAddress, address sender, address recipient, uint256 amount) public {\n    ERC20Interface(tokenAddress).transferFrom(sender, recipient, amount);\n  }\n}\n\ncontract WalletSimple {\n  // Events\n  event Deposited(address from, uint value, bytes data);\n  event SafeModeActivated(address msgSender);\n  event Transacted(\n    address msgSender, // Address of the sender of the message initiating the transaction\n    address otherSigner, // Address of the signer (second signature) used to initiate the transaction\n    bytes32 operation, // Operation hash (sha3 of toAddress, value, data, expireTime, sequenceId)\n    address toAddress, // The address the transaction was sent to\n    uint value, // Amount of Wei sent to the address\n    bytes data // Data sent when invoking the transaction\n  );\n  event TokenTransacted(\n    address msgSender, // Address of the sender of the message initiating the transaction\n    address otherSigner, // Address of the signer (second signature) used to initiate the transaction\n    bytes32 operation, // Operation hash (sha3 of toAddress, value, tokenContractAddress, expireTime, sequenceId)\n    address toAddress, // The address the transaction was sent to\n    uint value, // Amount of token sent\n    address tokenContractAddress // The contract address of the token\n  );\n\n  address[] public signers;\n  bool public safeMode = false;\n\n  uint constant SEQUENCE_ID_WINDOW_SIZE = 10;\n  uint[10] recentSequenceIds;\n\n  address[] public unassignedForwarder;\n  address private storageAddress;\n\n  modifier onlysigner {\n    if (!isSigner(msg.sender)) {\n      revert(\"not signer\");\n    }\n    _;\n  }\n\n  constructor (address[] allowedSigners) public {\n    if (allowedSigners.length != 3) {\n      // Invalid number of signers\n      revert();\n    }\n    signers = allowedSigners;\n  }\n\n  function showSender() public returns (address) {\n      return msg.sender;\n  }\n\n  function() public payable {\n    if (msg.value > 0) {\n      MultiSigWalletStorage(storageAddress).depositEther(msg.sender, msg.value);\n      emit Deposited(msg.sender, msg.value, msg.data);\n    }\n  }\n\n  function setStorageAddress(address target) public onlysigner {\n      storageAddress = target;\n  }\n\n  function createForwarder() public onlysigner returns (address) {\n    address forwarder = new Forwarder();\n    unassignedForwarder.push(forwarder);\n    return forwarder;\n  }\n\n  function assignForwarder(address client) public onlysigner returns (address) {\n    require(getNumOfUnassignedForwarder() != 0, \"not enough\");\n    uint256 len = unassignedForwarder.length;\n    address targetForwarder = unassignedForwarder[len-1];\n    Forwarder forwarder = Forwarder(targetForwarder);\n    forwarder.enable();\n\n    MultiSigWalletStorage instance = MultiSigWalletStorage(storageAddress);\n    instance.addForwarder(targetForwarder, client);\n\n    delete unassignedForwarder[len-1];\n    unassignedForwarder.length--;\n\n    return targetForwarder;\n  }\n\n  function showUnassignedForwarder() public view returns (address[]) {\n      return unassignedForwarder;\n  }\n\n  function getNumOfUnassignedForwarder() public view returns (uint256) {\n      return unassignedForwarder.length;\n  }\n\n  function sendMultiSig(address toAddress, uint value, bytes data, uint expireTime, uint sequenceId, bytes signature) public onlysigner {\n    // Verify the other signer\n    bytes32 operationHash = keccak256(\"ETHER\", toAddress, value, data, expireTime, sequenceId);\n    \n    address otherSigner = verifyMultiSig(toAddress, operationHash, signature, expireTime, sequenceId);\n\n    toAddress.transfer(value);\n\n    emit Transacted(msg.sender, otherSigner, operationHash, toAddress, value, data);\n  }\n\n  function sendMultiSigToken(address toAddress, uint value, address tokenContractAddress, uint expireTime, uint sequenceId, bytes signature) public onlysigner {\n    // Verify the other signer\n    bytes32 operationHash = keccak256(\"ERC20\", toAddress, value, tokenContractAddress, expireTime, sequenceId);\n    \n    address otherSigner = verifyMultiSig(toAddress, operationHash, signature, expireTime, sequenceId);\n    \n    ERC20Interface instance = ERC20Interface(tokenContractAddress);\n\n    instance.transfer(toAddress, value);\n\n    emit TokenTransacted(msg.sender, otherSigner, operationHash, toAddress, value, tokenContractAddress);\n  }\n\n  function flushForwarderTokens(address forwarderAddress, address tokenContractAddress) public onlysigner {    \n    Forwarder forwarder = Forwarder(forwarderAddress);\n    forwarder.flushTokens(tokenContractAddress);\n  }\n  \n  function verifyMultiSig(address toAddress, bytes32 operationHash, bytes signature, uint expireTime, uint sequenceId) private returns (address) {\n\n    address otherSigner = recoverAddressFromSignature(operationHash, signature);\n\n    // Verify if we are in safe mode. In safe mode, the wallet can only send to signers\n    if (safeMode && !isSigner(toAddress)) {\n      // We are in safe mode and the toAddress is not a signer. Disallow!\n      revert();\n    }\n    // Verify that the transaction has not expired\n    if (expireTime < block.timestamp) {\n      // Transaction expired\n      revert();\n    }\n\n    // Try to insert the sequence ID. Will throw if the sequence id was invalid\n    tryInsertSequenceId(sequenceId);\n\n    if (!isSigner(otherSigner)) {\n      // Other signer not on this wallet or operation does not match arguments\n      revert();\n    }\n    if (otherSigner == msg.sender) {\n      // Cannot approve own transaction\n      revert();\n    }\n\n    return otherSigner;\n  }\n\n  function activateSafeMode() public onlysigner {\n    safeMode = true;\n    emit SafeModeActivated(msg.sender);\n  }\n\n  function isSigner(address signer) public view returns (bool) {\n    // Iterate through all signers on the wallet and\n    for (uint i = 0; i < signers.length; i++) {\n      if (signers[i] == signer) {\n        return true;\n      }\n    }\n    return false;\n  }\n\n  function recoverAddressFromSignature(bytes32 operationHash, bytes signature) private pure returns (address) {\n    if (signature.length != 65) {\n      revert();\n    }\n    // We need to unpack the signature, which is given as an array of 65 bytes (from eth.sign)\n    bytes32 r;\n    bytes32 s;\n    uint8 v;\n    assembly {\n      r := mload(add(signature, 32))\n      s := mload(add(signature, 64))\n      v := and(mload(add(signature, 65)), 255)\n    }\n    if (v < 27) {\n      v += 27; // Ethereum versions are 27 or 28 as opposed to 0 or 1 which is submitted by some signing libs\n    }\n    return ecrecover(operationHash, v, r, s);\n  }\n\n  function tryInsertSequenceId(uint sequenceId) onlysigner private {\n    // Keep a pointer to the lowest value element in the window\n    uint lowestValueIndex = 0;\n    for (uint i = 0; i < SEQUENCE_ID_WINDOW_SIZE; i++) {\n      if (recentSequenceIds[i] == sequenceId) {\n        // This sequence ID has been used before. Disallow!\n        revert();\n      }\n      if (recentSequenceIds[i] < recentSequenceIds[lowestValueIndex]) {\n        lowestValueIndex = i;\n      }\n    }\n    if (sequenceId < recentSequenceIds[lowestValueIndex]) {\n      // The sequence ID being used is lower than the lowest value in the window\n      // so we cannot accept it as it may have been used before\n      revert();\n    }\n    if (sequenceId > (recentSequenceIds[lowestValueIndex] + 10000)) {\n      // Block sequence IDs which are much higher than the lowest value\n      // This prevents people blocking the contract by using very large sequence IDs quickly\n      revert();\n    }\n    recentSequenceIds[lowestValueIndex] = sequenceId;\n  }\n\n  function getNextSequenceId() public view returns (uint) {\n    uint highestSequenceId = 0;\n    for (uint i = 0; i < SEQUENCE_ID_WINDOW_SIZE; i++) {\n      if (recentSequenceIds[i] > highestSequenceId) {\n        highestSequenceId = recentSequenceIds[i];\n      }\n    }\n    return highestSequenceId + 1;\n  }\n\n  function isSetted() public view returns (bool) {\n    if(storageAddress == address(0)) {\n        return false;\n    } else {\n        return true;\n    }\n  }\n}",
  "sourcePath": "/Users/jang-yonghyeon/workspace/blockchain/ethereum/MultiSigWallet/contracts/MultiSigWallet.sol",
  "compiler": {
    "name": "solc",
    "version": "0.4.25+commit.59dbf8f1.Emscripten.clang"
  },
  "schemaVersion": "2.0.2",
  "updatedAt": "2019-08-06T07:25:16.038Z"
}